:020000022000DC
:106000000000012061630200C1630200C36302005B
:10601000C5630200C7630200C963020000000000FC
:10602000000000000000000000000000CB63020040
:10603000CD63020000000000CF630200D1630200C4
:1060400081950200D36302006DAA0200FDB7020031
:1060500015B80200D36302008DA70200D3630200CB
:1060600035C402004DC4020065C40200D3630200BF
:10607000D3630200D3630200D3630200D363020040
:10608000D3630200C9720200D3630200D36302002B
:1060900009730200D3630200CD260300D36302001C
:1060A000D3630200D36302007DC4020095C40200E2
:1060B000D3630200D3630200000000000000000070
:1060C000D3630200D3630200D363020075D20200DF
:1060D000D3630200D3630200D36302000000000018
:1060E00000000000000000000000000000000000B0
:1060F00000000000000000000000000000000000A0
:10610000000000000000000000000000000000008F
:10611000000000000000000000000000000000007F
:10612000000000000000000000000000000000006F
:10613000000000000000000000000000000000005F
:10614000000000000000000000000000000000004F
:10615000000000000000000000000000000000003F
:10616000000000000000000000000000000000002F
:10617000000000000000000000000000000000001F
:10618000000000000000000000000000000000000F
:1061900000000000000000000000000000000000FF
:1061A00000000000000000000000000000000000EF
:1061B00000000000000000000000000000000000DF
:1061C00000000000000000000000000000000000CF
:1061D00000000000000000000000000000000000BF
:1061E00000000000000000000000000000000000AF
:1061F000000000000000000000000000000000009F
:10620000364937480A1A02D0072291438D4635494C
:1062100035480A1A06D00722914381F309880222E1
:1062200082F3148831483249324A00F045F8324846
:106230003249334A00F040F832483349334A00F0DB
:106240003BF833483349344A00F036F83348344990
:10625000344A00F031F834483449354A00F02CF81B
:1062600034483549354A00F027F835483549002289
:1062700000F02DF834483549002200F028F8344861
:106280003449091A082903DB002202600430016046
:10629000314A90471F482049884205D0026804309F
:1062A00003B4904703BCF7E700208646EC46002085
:1062B00000212A4A9047FEE7884207D0521A05D0AB
:1062C000037801300B700131013AF9D170478842EF
:1062D00002D002700130FAE7704700000000012090
:1062E00000E00020000001200000012008830300DE
:1062F000F02B0020A42D0020D8630200D8630200F8
:10630000E868030008830300F02B0020F02B002036
:10631000586903005869030058690300586903006D
:10632000586903005869030058690300586903005D
:1063300008830300BC840300A42D0020A42D0020AA
:10634000A42D00201CB400201CB400201CB400208C
:106350001CB400201CD400208963020085EA0200DE
:106360001048804710484FF00701884385460F4882
:1063700080470F48016841F470010160BFF34F8FFF
:10638000BFF36F8FFFF73CBF0A480B490B4A8842A7
:1063900007D0521A05D0037801300B700131013A51
:1063A000F9D17047D563020000000120C18A0200C4
:1063B00088ED00E058690300F02B0020F02B00204E
:1063C000FEE7FEE7FEE7FEE7FEE7FEE7FEE7FEE7A5
:0863D000FEE7FEE7704700BF85
:1063D8000FF0BDBE0FF0A4BE0346084601210FF022
:1063E800AABE00002DE9F04F89B0019000238DF876
:1063F8001F3099E0524B1A689DF81F30DB00134498
:106408000693069B1B7819464FF001024FF00003D4
:10641800A1F1200CC1F1200003FA01F902FA0CFCE9
:1064280049EA0C0922FA00F049EA000902FA01F8DF
:10643800CDE90489434BD3E90001DDE9042302EAED
:10644800000A03EA010B5AEA0B0368D0DDE90423CA
:106458006FEA02006FEA03013A4BD3E900AB0AEA9C
:1064680000020BEA01033749C1E90023069B1B78A8
:10647800184604F06DF903468DF80F30069B1B781B
:1064880019464FF001024FF00003A1F1200CC1F1B1
:10649800200003FA01F502FA0CFC45EA0C0522FA81
:1064A80000F0054302FA01F4274BD3E9002304EA7C
:1064B800020A05EA030B9DF80F204FF00003069926
:1064C8000978A1F1200CC1F1200003FA01F702FAC2
:1064D8000CFC47EA0C0722FA00F0074302FA01F61F
:1064E800BB4508BFB2451AD19DF80F30069A5278BD
:1064F800012A0CBF01220022D2B293420CBF012311
:106508000023DBB20293069B5B68002B07D0069B37
:106518005B68069A12780299C9B2104698479DF8A6
:106528001F3001338DF81F30084B1B789DF81F2052
:106538009A42FFF45FAF00BF09B0BDE8F08F00BF1B
:10654800A42D0020D82D0020D02D0020A82D00201B
:1065580070B586B001900A468DF803204FF001010E
:106568004FF000020198A0F12006C0F1200502FAC0
:1065780000F401FA06F6344321FA05F52C4301FA32
:1065880000F3CDE90434304B184600F055FF039072
:10659800039B002B54D12D4BD3E90012DDE90434C1
:1065A80003EA010504EA020655EA060337D1019811
:1065B80004F0CEF80346002B0CD0254BD3E900128B
:1065C800DDE9043443EA010544EA0206204AC2E947
:1065D80000560FE0DDE904346FEA03016FEA0402B4
:1065E8001B4BD3E9005605EA010306EA0204184AE0
:1065F800C2E90034154BD3E90012DDE9043443EA5B
:10660800010544EA0206114AC2E900560E48114B38
:106618001B680022194600F0DDFE039011E0DDE959
:1066280004346FEA03016FEA0402084BD3E9005609
:1066380005EA010306EA0204044AC2E9003400E05C
:1066480000BF06B070BD00BFB02D0020D82D0020BF
:10665800D02D0020AC2D002010B58AB003900B4639
:1066680001928DF80B30019B042B01D807235AE0C7
:1066780003F052FD034683F00103DBB2002B09D07F
:1066880003F0F8FC0990099B0893089B002B01D0A4
:10669800089B48E0254A039B1360254A9DF80B3068
:1066A8001370244A019B1360234A4FF000034FF0F4
:1066B8000004C2E90034214A4FF000034FF00004FF
:1066C800C2E9003422E09DF80B30DB00039A134442
:1066D800079305AB00210A461A800A469A700323DD
:1066E8008DF81430079B9B788DF81530079B1B7825
:1066F800184605AB124A194603F0EAFE0990099BB1
:106708000693069B002B01D0069B0CE09DF80B30EE
:106718005A1E8DF80B20002BD5D10A4A00210A48B1
:1067280000F028FE034618460AB010BDA42D00202C
:10673800A82D0020AC2D0020D02D0020D82D002021
:1067480059650200ED6302005869030000B583B083
:10675800114B1B68002B03D11049BA2007F0D0FB5E
:10676800002301930CE00C4B1A68019BDB001344D7
:106778001B780121184603F025FF019B0133019383
:10678800074B1B781A46019B9342ECD3002318460B
:1067980003B05DF804FB00BFA42D00205C69030072
:1067A800A82D002086B003900291019201238DF854
:1067B80017309DF817301F4A039B13601D4A029B30
:1067C80053601C4A019B9360039B44F2010293426D
:1067D80012D044F20202934221D1019B154AD360A0
:1067E800144BDB681B881A46124B9A61114BDB6805
:1067F8005B68104AD36112E0019B0E4A13610D4B8E
:106808001B699B680B4A53610A4B1B691B68094A41
:106818009361084B1B695B68064AD36100BF72B677
:1068280000BF9DF81730DBB2002BFAD162B600BF6B
:1068380006B07047E02D002000B583B002900091AB
:10684800019244F2010071466A4600F003F803B071
:1068580000BD00BF00B587B003900291019272B6E7
:10686800039B41F20102934215D041F20102934287
:1068780002D8012B11D011E044F20102934207D053
:1068880044F20202934200D008E0019B059305E020
:10689800019B049302E000BF00E000BF074B1B68A8
:1068A80003F00103002B00D000BE019A029903985F
:1068B800FFF778FF00BF07B05DF804FBF0ED00E0DC
:1068C80082B003468DF807309DF8073003F01F02A9
:1068D80005499DF907305B09012000FA02F241F8E9
:1068E800232000BF02B0704700E100E082B00346F9
:1068F8008DF807309DF8073003F01F0206499DF90F
:1069080007305B09012000FA02F2203341F8232006
:1069180000BF02B0704700BF00E100E082B003464C
:106928008DF807309DF8073003F01F0206499DF9DE
:1069380007305B09012000FA02F2403341F82320B6
:1069480000BF02B0704700BF00E100E082B003461C
:106958008DF807309DF8073003F01F0206499DF9AE
:1069680007305B09012000FA02F2603341F8232066
:1069780000BF02B0704700BF00E100E082B00346EC
:1069880000918DF807309DF90730002B0CDA009B39
:10699800DAB20C499DF8073003F00F03043B5201AB
:1069A800D2B20B441A7609E0009BDAB206499DF987
:1069B80007305201D2B20B4483F8002300BF02B063
:1069C800704700BF00ED00E000E100E000B585B0D1
:1069D8000190019B002B0AD0074B43F0010303935E
:1069E800019B9B010293039B0298984700E000BF1C
:1069F80005B05DF804FB00BFB069030000B583B0C3
:106A08000190064A019BC2F8083507211120FFF7BB
:106A1800B5FF00BF03B05DF804FB00BF00100140E4
:106A280008B50D4B4FF48032C3F844230A4B4FF49A
:106A38008032C3F804231120FFF788FF1120FFF7E5
:106A48003FFF054B01221A602F20FFF7BFFF034BC2
:106A580001221A7000BF08BD001001401E2F00203F
:106A680008B51120FFF742FF0E4B4FF48032C3F8F0
:106A780048230C4B4FF48032C3F80823094B0122FA
:106A88005A602F20FFF7A2FF064B01229A60064B9F
:106A980000221A602F20FFF799FF044B00221A707A
:106AA80000BF08BD00100140102F00201E2F00203D
:106AB800024BD3F804351846704700BF0010014058
:106AC80082B001900091019A009BD31A23F07F4372
:106AD800184602B07047000082B00190034A019B3B
:106AE800C2F8403500BF02B0704700BF0010014037
:106AF80086B00190284B1B68002B03D1264A019BC6
:106B0800136045E0019B1A68234B1B681B689A4277
:106B180010D8214B1B681968019B1A681E4B1B680B
:106B28008A1A1A601C4B1A68019BDA611A4A019B7F
:106B380013602DE0019B1B680393174B1B6805939B
:106B4800154B1B68049309E0049B1B68039AD31A2E
:106B58000393049B0593049BDB690493049B002B1C
:106B680004D0049B1B68039A9A42EDD8049B002B1F
:106B780005D0049B1A68039BD21A049B1A60019BD8
:106B8800039A1A60019B049ADA61059B019ADA61FB
:106B980000BF06B0704700BF0C2F002000B587B0BB
:106BA80001902A4B1B680393284B1B680593059B90
:106BB800049308E0049A019B9A4208D0049B059329
:106BC800049BDB690493049B002BF3D100E000BF16
:106BD800049B002B01D1002333E0059A049B9A42C1
:106BE80014D11A4B1B68DB69184A1360174B1B68D2
:106BF800002B0BD1164B01229A60164B00221A600B
:106C0800154B01221A702F20FFF7E0FE049B1B682A
:106C18000293049BDA69059BDA61059BDB6904939F
:106C2800049B002B05D0049B1A68029B1A44049B02
:106C38001A60064B1B68039A9A4214BF012300236B
:106C4800DBB2184607B05DF804FB00BF0C2F00202C
:106C580000100140102F00201F2F002008B5112020
:106C6800FFF75CFE00BF08BD08B51420FFF756FE0D
:106C780000BF08BD00B583B00190019B5B69019A14
:106C880092691046984700BF03B05DF804FB000006
:106C980000B585B02B4B1B68002B4ED00023019309
:106CA800FFF706FF0246284B1B6819461046FFF7F8
:106CB80007FF0290234B1B6803931DE0039B1B688F
:106CC800029A9A421CD3039B1B68029AD31A029316
:106CD800039B1B68019A13440193039B0093039B36
:106CE800DB690393009B1B7C002B05D0009B0022D3
:106CF8001A740098FFF7BEFF039B002BDED100E05B
:106D080000BF124B1A78124B1B789A420CD1104BC9
:106D18001B780133DAB20E4B1A700D4B1B78022B1D
:106D280002D10B4B00221A70094B1B781946094AED
:106D3800019B42F82130FFF797FF00BF05B05DF8CF
:106D480004FB00BF0C2F0020102F00201C2F002058
:106D58001D2F0020142F002082B00190184B1A78A4
:106D6800184B1B789A4223D0154B1B780133DAB2A3
:106D7800134B1A70124B1B78022B02D1104B0022B6
:106D88001A700F4B1B781A460F4B53F82220019BA1
:106D98001A60019B1A680D4B1B6813440B4A136059
:106DA8000A4B1B6823F07F43084A1360012303E062
:106DB800019B00221A600023184602B0704700BFEA
:106DC8001C2F00201D2F0020142F0020102F002022
:106DD80088B00390029101920023079338E0204B7A
:106DE8001B680693069B1B68039A9A4206D2069B69
:106DF8001A68039BD21A069B1A602DE0069B1B6833
:106E0800039AD31A0393069B1B68079A13440793A4
:106E1800069B00221A60124B1B680593069BDB69D0
:106E28000F4A1360069BDB68002B11D0029A079B60
:106E3800134423F07F42069B5A60069BDA68069B40
:106E48009A60019B1A68069BDA61019B059A1A6091
:106E5800034B1B68002BC2D100BF08B0704700BFAE
:106E68000C2F002000B589B0019000238DF81F3049
:106E7800664B1B680593AAE0019B002B05D0019B7C
:106E88000693069BDB69019361E0614B1B781A4608
:106E980013465B001344DB005D4A13440433049338
:106EA8005B4B1B780133DAB2594B1A70584B1A787E
:106EB800574B9B789A4202D1554B00221A70049B7B
:106EC8005B680693049B1B78022B04D0032B1BD012
:106ED800012B1FD01DE0049B5B681846FFF75EFE80
:106EE8000346002B02D001238DF81F30069B002299
:106EF8001A746CE0454B1B680393039B00221A74B9
:106F0800039BDB69414A1360404B1B68002BF1D19E
:106F18005DE05CE000BF069B1B7C002B00D056E0C8
:106F2800049B9A68069B5A60049BDA68069B9A60E1
:106F3800049B1A69069BDA60049B5A69069B9A614E
:106F4800344B1B78002B02D0069B00225A60069B0C
:106F58005A68314B1B68D31A23F07F432F4A934258
:106F68000ED8069B5A682C4B1B6819461046FFF72B
:106F7800A7FD0246069B9B681A44069B1A6017E009
:106F8800254B1A68069B5B6819461046FFF798FD63
:106F98000290069B9B68029A9A4206D2069B9A68C0
:106FA800029BD21A069B1A6002E0069B00221A6016
:106FB800069B00225A60069B00229A60069B0122CB
:106FC8001A74069B0022DA610698FFF791FD019B6F
:106FD800002B7FF451AF0E4B1A780D4B5B789A4219
:106FE8007FF44AAF9DF81F30002B04D1074B1B6874
:106FF800059A9A4201D0012300E0002303F001031F
:10700800DBB2184609B05DF804FB00BF0C2F002066
:10701800002E00201F2F0020102F0020FEFF7F00D1
:1070280010B588B00190274B1B68002B44D0254B26
:107038001B681B680793FFF73BFD0690224B1B68F4
:10704800059305990698FFF73BFD03460333049320
:107058001E4B1B7883F00103DBB2002B01D0FFF736
:10706800DFFC049A079B934238BF1346059A1344E2
:107078000593059B23F07F4305930598FFF72CFDA7
:10708800FFF716FD039006990398FFF719FD0346CD
:10709800DC1C06990598FFF713FD03469C420DD9A1
:1070A800FFF706FD03461846FFF716FD2F20FFF7EA
:1070B8008DFCFFF7D3FD01E0FFF7D2FC00BF08B05D
:1070C80010BD00BF0C2F0020102F00201E2F002005
:1070D80000B587B00023019300238DF81730194BB2
:1070E8001B680493184B1B6803936B461846FFF7FD
:1070F80033FE03468DF80B309DF80B30002B08D07B
:10710800009B01AA04991846FFF762FE01238DF837
:107118001730019B1846FFF7A5FE0346002B02D047
:1071280001238DF817309DF81730002B02D00398F3
:10713800FFF776FF054B00221A7000BF07B05DF815
:1071480004FB00BF102F00200C2F00201F2F002051
:1071580082B003468DF80730034A9DF80730537014
:1071680000BF02B0704700BF002E002084B001901D
:10717800144B5B7801338DF80F30124B9B789DF8D8
:107188000F209A4202D100238DF80F300D4B1B7847
:107198009DF80F209A4201D100230FE0019B9DF832
:1071A8000F201A70074B5B781A4613465B0013448E
:1071B800DB00044A134404330293029B184604B0CC
:1071C800704700BF002E002000B589B003900291DF
:1071D800019200930023079300238DF816300DF1D8
:1071E8001603184600F0BCF90DF117031846FFF70F
:1071F800BDFF0690069B002B02D10423079318E0DD
:10720800069B01221A70069B039A5A60FFF750FCEE
:107218000246069B9A60069B029ADA60069B019AD0
:107228001A61069B009A5A619DF817301846FFF7B5
:107238008FFF9DF81630184600F0A8F9079B002B21
:1072480001D1FFF711FD079B184609B05DF804FB53
:1072580000B587B001900B468DF8033000230593E5
:1072680000238DF80E300DF10E03184600F078F962
:107278000DF10F031846FFF779FF0490049B002BCC
:1072880002D1042305930BE0049B9DF803201A7098
:10729800049B019A5A609DF80F301846FFF758FF73
:1072A8009DF80E30184600F071F9059B002B01D1AE
:1072B800FFF7DAFC059B184607B05DF804FB0000F1
:1072C80008B50E4B0022C3F840210C4B0022C3F82E
:1072D80044210A4B0022C3F84821084B0022C3F876
:1072E8004C21064B0022C3F80021044B0022C3F8AE
:1072F8000421FFF7CDFC00BF08BD00BF001001400E
:1073080008B5FFF7E5FE00BF08BD000008B5FFF7A8
:10731800A7FB134B00221A70114B00225A70104B16
:107328000B229A700F4B00221A600F4B00221A7022
:107338000E4B00221A701420FFF708FB07211420B7
:10734800FFF71CFB1420FFF7BBFA0020FFF756FBE2
:10735800FFF7AEFB0246064B1A600023184608BD2D
:10736800002E00200C2F00201C2F00201D2F002095
:10737800102F002086B003900B4601928DF80B3039
:10738800134B9B78002B01D108231EE0019B002B97
:1073980001D1072319E0039B002B01D1072314E037
:1073A800039B1B681B7C002B01D008230DE0039B6B
:1073B8001B680593059B00221A74059B9DF80B20FA
:1073C8005A74059B019A5A610023184606B0704703
:1073D800002E002000B587B0039002910192039B14
:1073E8000593144B9B78002B01D108231EE0039BC7
:1073F800002B01D1082319E0029B042B01D8072395
:1074080014E0059B5B69002B01D108230EE0059B66
:107418005B7C012B01D1029B00E000230493019BBC
:10742800049A02990598FFF7CFFE0346184607B05D
:107438005DF804FB002E002000B585B00190019B8B
:1074480003930D4B9B78002B01D1082310E0019B7F
:10745800002B03D0039B5B69002B01D1082307E0B5
:10746800039B00221A7402210398FFF7F1FE0346DA
:10747800184605B05DF804FB002E002082B0EFF33B
:1074880010830093009B019372B6019B184602B0CB
:10749800704762B600BF704700B585B00190FFF72E
:1074A800EDFF0390164B9B68002B1BD1144B012258
:1074B8009A60144BD3F88020134B1340104A136082
:1074C800104B114AC3F880200E4BD3F884300C4A75
:1074D80053600C4B4FF0FF32C3F88420019B00220D
:1074E8001A7002E0019B01221A70039B002B01D144
:1074F800FFF7CFFF0023184605B05DF804FB00BF77
:10750800202F002000E100E0FC06FFBD00B585B09B
:1075180003468DF80730104B9B68002B16D09DF85A
:107528000730002B12D1FFF7A9FF03900B4A0A4B33
:107538001B681360094A084B5B685360064B0022BE
:107548009A60039B002B01D1FFF7A3FF0023184685
:1075580005B05DF804FB00BF202F002000E100E02B
:1075680000B583B0019000F02BF80346012B03D03F
:107578000549432006F0C4FC0198FFF78DFF00BFC2
:1075880003B05DF804FB00BFB869030000B583B021
:1075980003468DF8073000F013F80346012B03D09B
:1075A8000649512006F0ACFC9DF807301846FFF755
:1075B800ADFF00BF03B05DF804FB00BFB86903006E
:1075C80084B0EFF305830193019BC3F3080303938E
:1075D800039B002B0DD1EFF314830093009B0293C0
:1075E800029B03F00103002B0CBF01230023DBB235
:1075F80000E00123184604B0704786B0019000915E
:10760800019B53E8021F1FFAA1F2D888824202BFE9
:10761800BFF32F8F00230DE0D88902449889824256
:1076280028BF121AC1EA024243E802200028E8D122
:107638004FF001038DF80F30059002910492029AE1
:10764800009B1A609DF80F30DBB2184606B07047F1
:1076580084B00190019951E8023FC3EA234341E80D
:107668000232002AF7D10392029300BF04B0704798
:1076780000B585B001900091009B19460198FFF76D
:10768800BCFF0346002B07D0019B1B68009A528859
:1076980013440393039B00E00023184605B05DF8EC
:1076A80004FB00B583B001900091009B1A88009BF1
:1076B8005B889A4204D10198FFF7CAFF012300E0D2
:1076C8000023184603B05DF804FB00B585B00190AF
:1076D8000091009B5B099B00019AD018009B03F066
:1076E8001F03012202FA03F3194600F035F803904C
:1076F80000BF05B05DF804FB00B585B001900091AE
:10770800009B5B099B00019AD018009B03F01F03A4
:10771800012202FA03F3DB43194600F035F803901F
:1077280000BF05B05DF804FB82B001900091009B9A
:107738005B099B00019A13441A68009B03F01F031E
:1077480022FA03F303F00103002B14BF01230023E3
:10775800DBB2184602B0704710B487B001900091B0
:10776800019B009A53E8004F44EA020043E80001F5
:1077780091F0000FF6D1059404900391049B1846EC
:1077880007B05DF8044B704710B487B001900091C2
:10779800019B009A53E8004F04EA020043E8000105
:1077A80091F0000FF6D1059404900391049B1846BC
:1077B80007B05DF8044B704729DF704700BF1846D3
:1077C80028DF704700BF184600B589B001900091C6
:1077D800019B1B689B68002B35D002AB00221A6006
:1077E8005A609A60DA601A615A61009B0393019BA0
:1077F8009B680793019B1B79002B02D0012B0DD0AE
:107808001AE001238DF80830019B1B690493019B42
:10781800DB680593019B5B6906930DE002238DF8F5
:107828000830019BDB684FF4805202FB03F304939A
:10783800019B5B69069300BF019B1B689B6802AABA
:107848001046984700E000BF09B05DF804FB00B59A
:1078580087B00190019B5A69019B9B69D31AB3F5C4
:10786800805F28BF4FF4805305930422059BB3FB28
:10787800F2F3012B38BF01230593019B1A69019B81
:107888009B6913440493019BDB681A46019B9B691F
:1078980013440393059A03990498FFF78DFF034651
:1078A800184607B05DF804FB00B583B00190019B52
:1078B800DA68019B1B6913441846FFF781FF0346EA
:1078C800184603B05DF804FB08B5034B0349184696
:1078D800FFF7E7FE00BF08BD2C2F0020542F002023
:1078E80008B5084B08491846FFF7C2FE0246074B81
:1078F8001A60064B1B68002B14BF01230023DBB260
:10790800184608BD2C2F0020542F0020502F00208F
:1079180000B583B02A4B1B7A002B0BD1FFF7E0FF91
:10792800034683F00103DBB2002B03D0244B002273
:107938005A6042E0224B02221A72224B1B681B79C2
:10794800002B02D0012B07D00DE01E4B1B681846F8
:10795800FFF77DFF019009E01A4B1B681846FFF7F7
:10796800A3FF019002E00323019300BF019B002BBA
:1079780002D0112B0CD00FE0114B1B7C83F00103BC
:10798800DBB2002B18D00021022000F06FF813E0C2
:107998000B4B01221A7210E00A4B1B680321184690
:1079A800FFF712FF064B00221A72054B00225A609D
:1079B800FFF78AFF00BF00E000BF03B05DF804FBDB
:1079C8003C2F0020502F002084B001901B4B002238
:1079D800DA60019B1B79002B02D0012B19D028E01B
:1079E800019B5A69019B9B69D31AB3F5805F28BF35
:1079F8004FF480530393019B9A69039B1A44019B9C
:107A08009A61019B9A69019B5B699A420ED1012395
:107A180010E0019B1B695A1C019B1A61019B1A69A2
:107A2800019B5B699A4203D1012303E000BF00E098
:107A380000BF0023184604B0704700BF3C2F002049
:107A480082B00190084BDB680133074AD360064BCC
:107A5800DB68082B04D9044B0022DA60012300E01C
:107A68000023184602B070473C2F002000B585B0AF
:107A780001900091019B022B02D0019B032B49D15D
:107A8800274B1B7A012B35D0022B02D0002B43D079
:107A980033E000238DF80F30019B022B02D0032B1B
:107AA80009D011E01F4B1B681846FFF78DFF0346EE
:107AB8008DF80F3008E01B4B1B681846FFF7C0FF16
:107AC80003468DF80F3000BF9DF80F30002B13D000
:107AD800134B00221A72134B1A68019B022B01D117
:107AE800002300E00D2319461046FFF76DFEFFF74F
:107AF800EBFE01E000BF00E000BF094B5B7C83F0B8
:107B08000103DBB2002B02D0FFF702FF05E00AF009
:107B180097FD02E000BF00E000BF05B05DF804FB80
:107B28003C2F0020502F002082B0034600918DF892
:107B38000730064B01225A74044B1B7A002B0CBFEA
:107B480001230023DBB2184602B070473C2F002007
:107B580000B583B0034600918DF807309DF80730D3
:107B6800012B03D09DF80730032B0DD1084B0022C1
:107B78005A749DF80730012B0CBF01230023DAB299
:107B8800034B1A74FFF7C4FE00BF03B05DF804FB93
:107B98003C2F002000B583B00190019B002B03D13E
:107BA8000649722006F0ACF9019B00221A60BFF367
:107BB8005F8F00BF03B05DF804FB00BF606A03007D
:107BC80008B5064B00221A700548FFF7E3FF054980
:107BD800054800F00BF80023184608BD5C2F00206C
:107BE800582F0020EC6A0300602F002000B583B0F6
:107BF80001900091019B002B03D11049502006F001
:107C08007FF9009B002B03D10C49512006F078F92D
:107C1800019B009A1A60019B1B681A68019B5A60B5
:107C2800019B5A68019B1B685B689A4202D1019BC1
:107C380000225A6000BF03B05DF804FBF86A030035
:107C480000B583B00190019B002B03D11449632038
:107C580006F056F9019B1B68002B03D110496420DC
:107C680006F04EF9019B5B68002B14D0019B5B6802
:107C78001A46019B1B689B6813441A46019B5A606D
:107C8800019B5A68019B1B685B689A4204D1019B5F
:107C980000225A6000E000BF03B05DF804FB00BF9B
:107CA800F86A030082B001900B46ADF80230BDF8C7
:107CB8000230019A1344184602B0704782B001900E
:107CC800019BD3F81035DBB2184602B0704782B07A
:107CD80001900B468DF803309DF80320019B02F5B7
:107CE800A87253F82230184602B0704782B001904B
:107CF800019B9BB250339BB29B009BB2184602B0CB
:107D08007047000000B585B001900B468DF8033030
:107D18009DF803300393019BB3F1805F04D30749B7
:107D28004FF4197006F0ECF8019B1A01039B22FA34
:107D380003F3184605B05DF804FB00BF606B030051
:107D480010B582B001900091019B5B791A46009BA7
:107D5800934204D3094940F2751006F0D1F8019B0B
:107D68001C680098FFF7C2FF034619462046FFF734
:107D780099FF0346184602B010BD00BF906B030080
:107D880000B583B001900B468DF80330019B1B684A
:107D98009DF8032011461846FFF799FF0346184639
:107DA80003B05DF804FB00B583B001900091019B1E
:107DB8001B681846FFF782FF034619460098FFF72D
:107DC800A1FF0346184603B05DF804FB00B583B075
:107DD8000190019B1B681F2B04D905494FF4E870DB
:107DE80006F08EF84FF0A043184603B05DF804FB88
:107DF800CC6B030000B585B0019001AB1846FFF7C6
:107E0800E5FF0390019B012202FA03F31946039848
:107E180000F018F800BF05B05DF804FB00B585B0A8
:107E2800019001AB1846FFF7D1FF0390019B012297
:107E380002FA03F31946039800F00EF800BF05B0E4
:107E48005DF804FB82B001900091019B009AC3F891
:107E5800082500BF02B0704782B001900091019BD5
:107E6800009AC3F80C2500BF02B0704782B0019099
:107E78000B468DF8033000BF02B0704700B585B0DF
:107E88000190019B5B681B791A461A4B9B5C8DF825
:107E98000E3001238DF80F309DF80E30FF2B20D0C7
:107EA8009DF80E30FE2B1FD0019B5B689DF80E20BD
:107EB80011461846FFF764FF0246019B5B681B7971
:107EC80019460D4B53F821309A420DD1019B5B683E
:107ED8001B791A46074BFF21995400238DF80F3060
:107EE80002E000238DF80F309DF80F30184605B0DA
:107EF8005DF804FB6C2F0020742F002000B583B0C0
:107F08000190019B5B680221184604F0DDF900BF6F
:107F180003B05DF804FB00B583B00190019B5B687A
:107F28000221184604F00AFA00BF03B05DF804FB0A
:107F380000B587B003460091ADF80630009B049366
:107F480001238DF8173000238DF816303AE09DF89C
:107F580016302649049A52000A4413441B78DBB2AF
:107F6800002B2AD09DF816302049049A52000A4462
:107F78001A441278D2B2013AD0B21C49049A52007B
:107F88000A44134402461A709DF816301749049A99
:107F980052000A4413441B78DBB2002B0AD1144A5E
:107FA800049B52F823301B680393039BDB690498F6
:107FB800984702E000238DF817309DF816300133FA
:107FC8008DF816309DF81630012BC0D99DF8173062
:107FD800002B06D0064A049B52F823301846FFF7B8
:107FE8009AFF00BF07B05DF804FB00BF882F002090
:107FF800942F002000B585B00190019B1B68029367
:10800800029B93F82030184604F06EFB00238DF88D
:108018000F306CE000238DF80E3031E09DF80F2012
:108028009DF80E10029813465B0013449B0003440E
:108038000B4408331B78FF2B1DD09DF80F209DF8AB
:108048000E10029813465B0013449B0003440B4434
:1080580008331B78184604F047FB9DF80F209DF85D
:108068000E10029813465B0013449B0003440B4414
:108078000833FF221A709DF80E3001338DF80E3048
:108088009DF80E30012BC9D99DF80F20029913468F
:108098005B0013449B000B441B68B3F1FF3F16D0F1
:1080A8009DF80F20029913465B0013449B000B4474
:1080B8001B68184602F0A4F89DF80F200299134691
:1080C8005B0013449B000B444FF0FF321A609DF88D
:1080D8000F20029913465B0013449B000B440B339B
:1080E80000221A709DF80F3001338DF80F309DF87B
:1080F8000F30012B8ED9019B5B68184603F0CEFF29
:1081080000BF05B05DF804FB30B587B001900B46A1
:108118008DF803301346ADF80030019B1B680593BA
:108128009DF8032013465B0013449B00059A1344F3
:1081380004939DF803308DF80F30059B93F8203099
:10814800184604F070FBBDF80030002B11D1049BD9
:108158005B7A184604F067FB049B1B7A184604F008
:108168002DFB019B5B681B791A46484BFF219954EC
:1081780085E0BDF80020059B9B699A4215D3059BB5
:108188009B69ADF80030049B1B7A184604F04BFB42
:10819800049B5B7A184604F011FB019B5B681B7912
:1081A8001A463A4BFF21995469E0049B5A68059B8B
:1081B8009B699A4249D0049B5B68002B45D0BDF867
:1081C8000020049B5B689A423FD2019B5868049B3D
:1081D8005A680023032104F00FF8059B93F8204008
:1081E800019B5B6803211846FFF7AAFD0546049B1F
:1081F8009B7A002B06D0049B1B68184602F0FAF8FD
:10820800034605E0049B1B68184602F0C7F80346BE
:108218001A462946204604F098FA059B93F8203020
:10822800184604F0CBFA019B5B681B791946174A7C
:108238009DF803305354019B5B681B791946BDF8C0
:108248000030134A42F8213006E0019B5B681B7935
:108258001A460E4BFF219954019B5868BDF800201F
:108268009DF80F10002303F0C7FF049B1B7A1846E4
:1082780004F0A4FA049B5B7A184604F09FFABDF850
:108288000020049B5A6000BF07B030BD6C2F00204F
:10829800742F002000B585B001900B468DF803308F
:1082A8001346ADF80030019B1B6803939DF803202B
:1082B80013465B0013449B00039A134402939DF8F2
:1082C8000330012B04D92C4940F25B2005F018FE3D
:1082D800029BDB7A012B04D027494FF4177005F075
:1082E8000FFE039B93F82130022B01D008233EE0B8
:1082F800BDF80020029B5B689A420CD1039BDB69A6
:10830800002B06D0039BDB69019A5268127910464C
:10831800984700232BE00198FFF7B0FD0346002B98
:1083280001D0112323E0019B5B681B791A46134B8C
:10833800FE219954BDF800209DF803301946019894
:10834800FFF7E2FE019B1B68DB69002B0ED0019B47
:108358005B681B791A469DF80330094952000A44A4
:10836800134402221A700198FFF7C8FD002318462B
:1083780005B05DF804FB00BFFC6B03006C2F002008
:10838800882F002084B00190019B1B680393039BF6
:108398009B699BB2184604B07047000000B585B0D1
:1083A80001900B468DF803301346ADF80030019864
:1083B800FFF7E8FF03461A46BDF8003003FB02F357
:1083C800084AA2FB03235B0B0393039B9AB29DF815
:1083D800033019460198FFF75DFF0346184605B0BC
:1083E8005DF804FB5917B7D110B58CB00390019212
:1083F8001A460B468DF80B3013468DF80A309DF857
:108408000B30012B04D968494FF42B7005F078FD27
:10841800039B1B680A939DF80B2013465B001344CB
:108428009B000A9A134409930A9B93F82130002B66
:1084380001D00823B4E0099B00225A60099B9DF8EB
:108448000A209A7203238DF81430039B19689DF84B
:108458000B2013465B0013449B000B440A331B7824
:10846800002B0CBF01230023DBB28DF8153001234C
:108478008DF8163005AB1946019801F059FE0890A1
:10848800089B002B01D004238AE09DF80B200A9951
:1084980013465B0013449B000B44019A1A609DF835
:1084A8000A30002B03D00198FFF7B8FC02E00198CE
:1084B800FFF7A0FC00238DF82F3011E09DF82F3036
:1084C8000833099A1344184604F0B4F80346002BFD
:1084D80001D0042364E09DF82F3001338DF82F304C
:1084E8009DF82F30012BE9D9099B1B7A184604F017
:1084F8009AF9099B5B7A184604F095F99DF80A30B9
:10850800002B06D0099B1B68184601F073FF034631
:1085180005E0099B1B68184601F040FF03460793D6
:108528009DF80A30002B06D0099B1B68184601F0FD
:1085380035FF034605E0099B1B68184601F05AFF02
:1085480003460693099B1C7A039B5B689DF80B20E6
:1085580011461846FFF7F4FB0346079A19462046CA
:1085680004F0F3F8099B5C7A039B5B6802211846C8
:10857800FFF7E6FB0346069A1946204604F0E5F89D
:10858800099B0122DA72039B5B681B791A469DF8E6
:108598000B30064952000A44134400221A70002383
:1085A80018460CB010BD00BFFC6B0300882F0020DC
:1085B80084B00190002303930923029305E0019BF3
:1085C8005B080193039B01330393019BB3F5805F21
:1085D80003D3039A029B9A42F1D3074B1B78002BD3
:1085E80004D0039B002B01D101230393039BDBB22F
:1085F800184604B0704700BF682F002000B58FB040
:10860800059004910392059B002B04D18F4940F2F9
:10861800113005F075FC049B002B01D10B2310E1F0
:10862800059B1B680C930C9B93F82130002B01D001
:10863800082306E103F0F4F80B900B9B002B04D001
:108648000B9B852B01D00423FBE001F065FD03465D
:1086580083F00103DBB2002B07D001F00BFD0B9078
:108668000B9B002B01D00323EBE0794B1B6803F035
:10867800F003302B03D1774B00221A7002E0754BC0
:1086880001221A700C9BFF2283F8202000238DF80A
:10869800373030E09DF837200C9913465B001344BF
:1086A8009B000B440B3300221A709DF837200C995D
:1086B80013465B0013449B000B440833FF221A70D7
:1086C8009DF837200C9913465B0013449B000B441C
:1086D8000933FF221A709DF837200C9913465B0066
:1086E80013449B000B444FF0FF321A609DF837305B
:1086F80001338DF837309DF83730012BCAD90C9BE0
:108708002033184603F096FF0346002B04D0059843
:10871800FFF770FC042394E000238DF836302CE03A
:108728009DF83620049B53F82230B3F1FF3F1FD049
:108738009DF83620049B53F822009DF83630049AA1
:1087480013441B7A9DF8361002460598FFF74CFE35
:108758000B900B9B002B04D00598FFF74BFC0B9B51
:108768006FE09DF83630002219460598FFF792FD14
:108778009DF8363001338DF836309DF83630012BB0
:10878800CED9049B1B691846FFF712FF03468DF8E4
:108798002B309DF82B308DF81C3000238DF81D30C0
:1087A80000238DF81E3007238DF81F30059B5B686A
:1087B8001B790893059B5B6807A9274A184603F0AD
:1087C80069FB0B900B9B002B04D00598FFF712FC5C
:1087D8000B9B36E0059B5A68049B1B69194610469B
:1087E800FFF7E1FA09900C9B099A9A61059B5B686F
:1087F800184603F0DFFC059B586801230093042307
:10880800099A022103F031FD059B5B680221184695
:1088180003F094FD0C9B039ADA61059B5B681B7956
:1088280019460E4A059B42F82130059B5B681B7967
:108838001A460B4BFF2199540C9B012283F82120E7
:10884800002318460FB05DF804FB00BFFC6B030063
:10885800E80F00F0682F0020397F0200942F0020D5
:108868006C2F002000B587B00190019B1B68049312
:10887800049B93F82130002B04D1304940F2973003
:1088880005F03EFB0023059334E0059A13465B0090
:1088980013449B00049A13440393019B5B681B7960
:1088A800274A5B001A44059B134400221A70039B55
:1088B800DB7A002B1BD0039B1868019B1968059A6B
:1088C80013465B0013449B000B440A331B78002BB0
:1088D8000CBF01230023DBB2194601F0B7FD039B4F
:1088E8001B68184601F0CCFC039B00225A60059BCC
:1088F80001330593059B012BC7D9019B5B681B7945
:108908001A46104BFF219954019B5B681B68012193
:108918001846FFF7ABFA019B5B68184603F04AFC60
:10892800019B5B68184603F0E9FB049B022283F86D
:10893800212000BF07B05DF804FB00BFFC6B0300FB
:10894800882F00206C2F002000B587B00190019B74
:108958001B680493049B93F82130002B04D13649FB
:108968004FF46D7005F0CCFA019B5B68184603F074
:10897800F3FB0198FFF7CFFA049B93F820301846D1
:1089880003F051FF00238DF8173041E09DF81720C0
:1089980013465B0013449B00049A13440393039B00
:1089A800DB7A002B2FD0019B19689DF817201346FE
:1089B8005B0013449B000B440A331B78002B0CBF4D
:1089C80001230023DBB28DF80B309DF80B30002B10
:1089D80005D0039B1B681846FFF70CFA04E0039BBD
:1089E8001B681846FFF71AFA039B1B68184601F024
:1089F80079FC039B1B7A184603F015FF039B5B7AEF
:108A0800184603F010FF9DF8173001338DF8173022
:108A18009DF81730012BB9D9019B5B681B680021B1
:108A28001846FFF723FA049B012283F8212000BF90
:108A380007B05DF804FB00BFFC6B030000B585B010
:108A48000190019B1B680393039B93F82130022B31
:108A580003D10198FFF778FF06E0039B93F82130D4
:108A6800002B01D1082307E00198FFF7C3FA039B05
:108A7800002283F821200023184605B05DF804FB86
:108A8800BFF34F8F054BDB6803F4E0620349044BE7
:108A98001343CB60BFF34F8F00BFFDE700ED00E04D
:108AA8000400FA05024B034A1A6000BF704700BF72
:108AB800F02B00200090D00308B500F067F90346BA
:108AC800002B06D09F4B1B681B0A9F4A03F01F030D
:108AD800136000F087F90346002B02D09B4B9C4A99
:108AE8001A6000F09BF90346002B06D0994B1B68CF
:108AF8005B0B994A03F00703136000F0BBF90346C8
:108B0800002B05D0954BDB68944A23F08073D36023
:108B180000F0CCF90346002B0ED04FF08043002222
:108B2800C3F80C214FF080430022C3F810214FF006
:108B380080430022C3F8382500F0E4F90346002BEF
:108B480002D0874B03221A6000F0F8F90346002B85
:108B58000BD0844B05221A60834B01221A60834B89
:108B680000221A60824B3F221A6000F003FA034683
:108B7800002B76D04FF080537E4AD3F80434C2F8E5
:108B880020354FF080537B4AD3F80834C2F8243597
:108B98004FF08053774AD3F80C34C2F828354FF099
:108BA8008053744AD3F81034C2F82C354FF08053F0
:108BB800704AD3F81434C2F830354FF080536D4AF8
:108BC800D3F81834C2F834354FF08053694AD3F8D3
:108BD8001C34C2F840354FF08053664AD3F820342D
:108BE800C2F844354FF08053624AD3F82434C2F8AF
:108BF80048354FF080535F4AD3F82834C2F84C35D3
:108C08004FF080535B4AD3F82C34C2F850354FF0FC
:108C18008053584AD3F83034C2F854354FF0805353
:108C2800544AD3F83434C2F860354FF08053514A6F
:108C3800D3F83834C2F864354FF080534D4AD3F82E
:108C48003C34C2F868354FF080534A4AD3F8403470
:108C5800C2F86C354FF08053464AD3F84434C2F812
:108C6800703500F0A3F90346002B05D0424B1B6872
:108C7800424A03F04F03136000F0C4F90346002B87
:108C88000DD04FF08043D3F8003403F00103002BDC
:108C980005D04FF080436FF00102C3F8002400F0C4
:108CA800DDF90346002B05D0354B1B68344A43F4E5
:108CB80080631360334BD3F88830324A43F470032F
:108CC800C2F88830BFF34F8FBFF36F8F4FF0102378
:108CD800D3F80032002B05DB4FF01023D3F8043211
:108CE800002B2BDA284B0122C3F8042500BF264BA2
:108CF800D3F80034002BFAD04FF010231522C3F814
:108D0800002200BF204BD3F80034002BFAD04FF0DC
:108D180010231522C3F8042200BF1B4BD3F80034DC
:108D2800002BFAD0184B0022C3F8042500BF164BBD
:108D3800D3F80034002BFAD0FFF7A2FEFFF7B2FEFB
:108D480000BF08BD240300104035014074C007402F
:108D58000DF0ADBA440200103C050040F0ED00E013
:108D6800A0050040105600408856004018560040A4
:108D78001456004000C0004058020010E40E0040A5
:108D88003C17004000ED00E000E00140124B1B687A
:108D9800DBB2062B1DD1114B1B6803F00F03002B10
:108DA80017D10F4B1B6803F0F003302B01D10123BF
:108DB80010E00B4B1B6803F0F003402B01D101239B
:108DC80008E0074B1B6803F0F003502B01D1012387
:108DD80000E0002318467047E00F00F0E40F00F0B1
:108DE800E80F00F00A4B1B68DBB2062B0DD1094BCC
:108DF8001B6803F00F03002B07D1074B1B6803F018
:108E0800F003302B01D1012300E0002318467047FE
:108E1800E00F00F0E40F00F0E80F00F0124B1B68C1
:108E2800DBB2062B1DD1114B1B6803F00F03002B7F
:108E380017D10F4B1B6803F0F003302B01D101232E
:108E480010E00B4B1B6803F0F003402B01D101230A
:108E580008E0074B1B6803F0F003502B01D10123F6
:108E680000E0002318467047E00F00F0E40F00F020
:108E7800E80F00F00A4B1B68DBB2062B0DD1094B3B
:108E88001B6803F00F03002B07D1074B1B6803F087
:108E9800F003302B01D1012300E00023184670476E
:108EA800E00F00F0E40F00F0E80F00F0124B1B6831
:108EB800DBB2062B1DD1114B1B6803F00F03002BEF
:108EC80017D10F4B1B6803F0F003302B01D101239E
:108ED80010E00B4B1B6803F0F003402B01D101237A
:108EE80008E0074B1B6803F0F003502B01D1012366
:108EF80000E0002318467047E00F00F0E40F00F090
:108F0800E80F00F00A4B1B68DBB2062B0DD1094BAA
:108F18001B6803F00F03002B07D1074B1B6803F0F6
:108F2800F003302B01D1012300E0002318467047DD
:108F3800E00F00F0E40F00F0E80F00F00A4B1B68A8
:108F4800DBB2062B0DD1094B1B6803F00F03002B76
:108F580007D1074B1B6803F0F003302B01D1012325
:108F680000E0002318467047E00F00F0E40F00F01F
:108F7800E80F00F00A4B1B68DBB2062B0DD1094B3A
:108F88001B6803F00F03002B07D1074B1B6803F086
:108F9800F003502B01D1012300E00023184670474D
:108FA800E00F00F0E40F00F0E80F00F0124B1B6830
:108FB800DBB2062B1DD1114B1B6803F00F03002BEE
:108FC80017D10F4B1B6803F0F003302B01D101239D
:108FD80010E00B4B1B6803F0F003402B01D1012379
:108FE80008E0074B1B6803F0F003502B01D1012365
:108FF80000E0002318467047E00F00F0E40F00F08F
:10900800E80F00F0124B1B68DBB2062B1DD1114B89
:109018001B6803F00F03002B17D10F4B1B6803F0DD
:10902800F003302B01D1012310E00B4B1B6803F038
:10903800F003402B01D1012308E0074B1B6803F024
:10904800F003502B01D1012300E00023184670479C
:10905800E00F00F0E40F00F0E80F00F0064B1B688B
:10906800062B05D1054B1B68062B01D1012300E017
:1090780000231846704700BF30010010340100106B
:1090880000B583B00190019B1B681F2B04D90549CB
:109098004FF4E87004F034FF4FF0A043184603B0D3
:1090A8005DF804FB486C030000B585B001900846E4
:1090B80011461A4603468DF803300B468DF80230E8
:1090C80013468DF8013001AB1846FFF7D9FF03901E
:1090D8009DF803209DF802305B001A439DF801308B
:1090E8009B001A439DF818301B0242EA03019DF8C1
:1090F8001C301B04019A1943039B02F5E07243F8E4
:10910800221000BF05B05DF804FB00B585B00390E0
:1091180000230193002300930023012201210398D7
:10912800FFF7C2FF00BF05B05DF804FB00B585B0CE
:1091380003900B468DF80B309DF80B20002301930C
:10914800002300931346002200210398FFF7ACFF89
:1091580000BF05B05DF804FB00B585B0019001AB18
:109168001846FFF78DFF0390019B012202FA03F3D3
:109178001946039800F086F800BF05B05DF804FBB7
:1091880000B585B0019001AB1846FFF779FF039051
:10919800019B012202FA03F31946039800F07CF8B8
:1091A80000BF05B05DF804FB00B585B0019001ABC8
:1091B8001846FFF765FF0390039BD3F80435029325
:1091C800029BDA43019B012101FA03F31A40039B36
:1091D800C3F80825019B01229A40029B1A40039B71
:1091E800C3F80C2500BF05B05DF804FB00B583B0DB
:1091F80001900091009B002B03D10198FFF7C0FF5D
:1092080002E00198FFF7A8FF00BF03B05DF804FB78
:1092180000B585B0019001AB1846FFF731FF039008
:10922800039800F01FF80246019B22FA03F303F0AB
:109238000103184605B05DF804FB00B585B0019040
:1092480001AB1846FFF71CFF0390039800F012F8D3
:109258000246019B22FA03F303F00103184605B006
:109268005DF804FB82B00190019BD3F810351846D5
:1092780002B0704782B00190019BD3F804351846BC
:1092880002B0704782B001900091019B009AC3F828
:10929800082500BF02B0704782B001900091019B81
:1092A800009AC3F80C2500BF02B0704700B585B01E
:1092B8000190019B032B03D911493A2004F020FEA9
:1092C800104A019B13441B781846FFF7B6FF034664
:1092D800002B14BF012300238DF80F309DF80F30A9
:1092E800002B14BF01230023DBB283F00103DBB2A0
:1092F80003F00103DBB2184605B05DF804FB00BFBC
:10930800786C0300BC6C030000B583B00190019B2E
:10931800032B03D90749412004F0F2FD064A019BBB
:1093280013441B7800211846FFF760FF00BF03B005
:109338005DF804FB786C0300BC6C030000B583B0D7
:109348000190019B032B03D90749472004F0D8FD5E
:10935800064A019B13441B7801211846FFF746FF74
:1093680000BF03B05DF804FB786C0300BC6C03001D
:1093780000B583B00023019305E00198FFF7DEFFF5
:10938800019B01330193019B032BF6D900BF03B066
:109398005DF804FB00B583B00023019305E0019854
:1093A800FFF7B2FF019B01330193019B032BF6D911
:1093B80000BF03B05DF804FB00B583B00190019BCA
:1093C800032B03D907495F2004F09AFD064A019B45
:1093D80013441B781846FFF7E7FE00BF03B05DF89B
:1093E80004FB00BF786C0300BC6C030000B583B0BD
:1093F8000023019309E0094A019B13441B7818468E
:10940800FFF783FE019B01330193019B032BF2D9E4
:10941800FFF7AEFF00BF03B05DF804FBBC6C0300B0
:1094280000B585B00190019B032B03D91149AC20ED
:1094380004F066FD104A019B13441B781846FFF799
:10944800E7FE0346002B14BF012300238DF80F30DD
:109458009DF80F30002B14BF01230023DBB283F0EB
:109468000103DBB203F00103DBB2184605B05DF877
:1094780004FB00BF786C0300C06C030000B583B028
:10948800002301930AE0094A019B13441B78032136
:109498001846FFF74BFE019B01330193019B032BF9
:1094A800F1D900BF03B05DF804FB00BFC06C030036
:1094B80084B001904FF0FF330293002303930DE033
:1094C8000A4A039B13441B781A46019B934202D114
:1094D800039B029305E0039B01330393039B032B38
:1094E800EED9029B184604B0704700BFC06C030059
:1094F80000B583B00190019B03F00103002B01D05C
:10950800FFF774FF019B03F00203002B01D0FFF764
:10951800B5FF00BF03B05DF804FB82B001904FF0C7
:109528008042019BC2F8083300BF02B0704784B084
:109538000346ADF80630BDF8063003F1804300223B
:109548001A60BDF8063003F180431B680393039B40
:1095580000BF04B0704782B00346ADF80630BDF8CE
:10956800063003F180431B68002B14BF012300233E
:10957800DBB2184602B0704708B54FF48070FFF7A9
:10958800EAFF0346002B14D04FF48070FFF7CFFF9B
:109598000120FFF7C2FF264B5B7983F00103DBB2A2
:1095A800002B06D0224B01225A71214B1B68002048
:1095B80098474FF48270FFF7CEFF0346002B0AD07E
:1095C8004FF48270FFF7B3FF0220FFF7A6FF184B96
:1095D8001B68012098474FF48870FFF7BCFF0346CB
:1095E800002B0AD04FF48870FFF7A1FF1020FFF777
:1095F80094FF0F4B1B68022098474FF48670FFF7C3
:10960800AAFF0346002B10D00A4B00221A604FF421
:109618008670FFF78CFF0820FFF77FFF044B0022BE
:109628009A71034B1B680320984700BF08BD00BF11
:10963800A82F0020340C004082B003468DF8073074
:109648009DF8073003F01F0205499DF907305B09B3
:10965800012000FA02F241F8232000BF02B070474F
:1096680000E100E082B003468DF807309DF807302E
:1096780003F01F0206499DF907305B09012000FA33
:1096880002F2603341F8232000BF02B0704700BFE8
:1096980000E100E082B0034600918DF807309DF9A3
:1096A8000730002B0CDA009BDAB20C499DF8073022
:1096B80003F00F03043B5201D2B20B441A7609E0BF
:1096C800009BDAB206499DF907305201D2B20B4429
:1096D80083F8002300BF02B0704700BF00ED00E030
:1096E80000E100E000B583B003460A468DF8073074
:1096F80013468DF806309DF80630012B03D99DF8E6
:109708000630032B0BD99DF80630042B03D99DF89E
:109718000630072B03D908496B2004F0F1FB9DF8AC
:1097280006209DF9073011461846FFF7B3FF00BF22
:1097380003B05DF804FB00BFC46C030000B583B040
:1097480003468DF807309DF907301846FFF78AFF62
:109758009DF907301846FFF76FFF00BF03B05DF8AB
:1097680004FB82B003468DF807309DF8073003F1FB
:10977800804303F5C043184602B0704700B583B074
:109788000346ADF80630BDF80630184600F026F856
:1097980003461B68012B0CBF01230023DBB21846CC
:1097A80003B05DF804FB00B585B00346ADF806309C
:1097B800BDF80630184600F011F803461A46002393
:1097C8001360BDF80630184600F008F803461B6819
:1097D8000393039B00BF05B05DF804FB82B003460A
:1097E800ADF80630BDF8063003F1804303F5C043F9
:1097F800184602B07047000082B00190034A019BEE
:10980800C2F8043300BF02B0704700BF00600040D8
:1098180082B00190034A019BC2F8083300BF02B02E
:10982800704700BF0060004082B00190034BD3F83E
:109838000423019B1340184602B0704700600040A3
:1098480082B00190084A019B03F5A27352F82330B5
:10985800054943F00102019B03F5A27341F8232057
:1098680000BF02B0704700BF0060004082B00190A6
:10987800084A019B03F5A27352F82330054923F0E7
:109888000102019B03F5A27341F8232000BF02B037
:10989800704700BF0060004084B0039002911346F7
:1098A8008DF80730144A039B03F5A27352F823304E
:1098B800114923F4473323F44073039A02F5A27243
:1098C80041F822300C4A039B03F5A27352F8232077
:1098D800029B1B0203F4F8519DF807301B0403F4A4
:1098E80040330B4304491A43039B03F5A27341F821
:1098F800232000BF04B070470060004082B0019090
:10990800054A019B03F5A27352F823301B0A03F0A2
:109918001F03184602B070470060004082B00190F3
:10992800064A019B03F5A27352F823301B0C03F07F
:109938000303DBB2184602B0704700BF0060004066
:1099480084B00190094A019B03F5A27352F82330B1
:1099580043F0030303930549019B03F5A273039A9C
:1099680041F8232000BF04B0704700BF00600040EA
:1099780082B00190084A019B03F5A27352F8233084
:10998800054923F00302019B03F5A27341F8232044
:1099980000BF02B0704700BF0060004084B0039071
:1099A800029111461A460B468DF8073013468DF87A
:1099B8000630184A039B03F5A27352F82330154961
:1099C80023F4981323F4F853039A02F5A27241F88A
:1099D8002230104A039B03F5A27352F82320029BFE
:1099E8001B0203F4F8519DF807301B0403F44033BD
:1099F80019439DF806301B0503F480130B430549F2
:109A08001A43039B03F5A27341F8232000BF04B057
:109A1800704700BF0060004082B001900B468DF88F
:109A280003300B4A019B03F5A27352F8233023F449
:109A380080129DF803301B0503F4801304491A4370
:109A4800019B03F5A27341F8232000BF02B07047C1
:109A58000060004082B00190044A019B03F5A273A4
:109A6800002142F8231000BF02B070470060004098
:109A780000B583B00190019B1B681F2B04D90549D1
:109A88004FF4E87004F03CFA4FF0A043184603B0D6
:109A98005DF804FBF46C030000B585B0019008463E
:109AA80011461A4603468DF803300B468DF80230EE
:109AB80013468DF8013001AB1846FFF7D9FF039024
:109AC8009DF803209DF802305B001A439DF8013091
:109AD8009B001A439DF818301B0242EA03019DF8C7
:109AE8001C301B04019A1943039B02F5E07243F8EA
:109AF800221000BF05B05DF804FB00B585B00390E7
:109B080000230193002300930023012201210398DD
:109B1800FFF7C2FF00BF05B05DF804FB00B585B0D4
:109B280003900B468DF80B309DF80B200023019312
:109B3800002300931346002200210398FFF7ACFF8F
:109B480000BF05B05DF804FB00B585B003900023A5
:109B58000193002300930023012200210398FFF7BB
:109B68009BFF00BF05B05DF804FB00B585B0019010
:109B780001AB1846FFF77CFF0390019A039B02F59F
:109B8800E07253F8223023F002030293019A039BF8
:109B980002F5E072029943F8221000BF05B05DF8A3
:109BA80004FB00B585B001900B468DF8033001AB7E
:109BB8001846FFF75DFF0390019A039B02F5E072D8
:109BC80053F82230019A23F44031039B02F5E072E6
:109BD80043F82210019A039B02F5E07253F82230F1
:109BE8009DF8032012041146019A1943039B02F5BC
:109BF800E07243F8221000BF05B05DF804FB00B521
:109C080085B0019001AB1846FFF732FF0390019B26
:109C1800012202FA03F31946039800F04BF800BF3B
:109C280005B05DF804FB00B585B0019001AB18469E
:109C3800FFF71EFF0390019B012202FA03F3194666
:109C4800039800F041F800BF05B05DF804FB00B5CB
:109C580085B0019001AB1846FFF70AFF03900398FF
:109C680000F020F80246019B22FA03F303F00103F7
:109C7800184605B05DF804FB00B585B0019001AB4E
:109C88001846FFF7F5FE0390019A039B02F5E07270
:109C980053F822301B0C03F00303DBB2184605B05F
:109CA8005DF804FB82B00190019BD3F8103518468B
:109CB80002B0704782B001900091019B009AC3F8EE
:109CC800082500BF02B0704782B001900091019B47
:109CD800009AC3F80C2500BF02B0704700B587B0E2
:109CE8000390029101924FF0A0430493039A029BC0
:109CF8001344012B04D9124940F2F12004F000F971
:109D0800039B059311E0059B9B0006AA134453F897
:109D1800083C1846FFF7C6FF0246019B1A60019BE4
:109D280004330193059B01330593039A029B134463
:109D3800059A9A42E7D300BF07B05DF804FB00BF5D
:109D4800F46C030084B001900091009B0393019B85
:109D5800DB080293019B03F0070301930122019B97
:109D680002FA03F30399029A0A4412781340184638
:109D780004B0704784B001900091009B0393019B4D
:109D8800DB080293019B03F007030193039A029BEC
:109D980013441B785AB20121019B01FA03F35BB209
:109DA800134359B2039A029B1344CAB21A7000BFF4
:109DB80004B0704784B001900091009B0393019B0D
:109DC800DB080293019B03F007030193039A029BAC
:109DD80013441B785AB20121019B01FA03F35BB2C9
:109DE800DB435BB2134059B2039A029B1344CAB2D5
:109DF8001A7000BF04B0704782B00190074A019BF7
:109E08001344303393F90030B3F1FF3F14BF0123FB
:109E18000023DBB2184602B0704700BFB02F002005
:109E280082B001900C4A019B1344303393F90030FF
:109E3800002B09DB084A019B1344303393F90030A7
:109E4800072B01DC012300E0002303F00103DBB250
:109E5800184602B0704700BFB02F002082B00190B2
:109E6800064A019B1344303393F90030072BCCBFCB
:109E780001230023DBB2184602B07047B02F002040
:109E880082B00190064A019B1344303393F90030A5
:109E9800DB43DBB2DB09DBB2184602B0704700BF18
:109EA800B02F002084B00390029101928DF8033006
:109EB800029B59B20E4A039B134430330A461A7068
:109EC8000B49029B019A41F823209DF8033083F047
:109ED8000103DBB2002B08D0029B083B039A51B266
:109EE800034A13440A4683F8502000BF04B0704761
:109EF800B02F002082B00190044A019B13443033F4
:109F0800FE221A7000BF02B0704700BFB02F0020B9
:109F180082B00190044A019B13443033FF221A7027
:109F280000BF02B0704700BFB02F002000B583B05B
:109F3800019004490198FFF71DFF00BF03B05DF8C9
:109F480004FB00BF0430002000B583B00190044931
:109F58000198FFF72FFF00BF03B05DF804FB00BFB7
:109F68000430002000B583B0019007490198FFF73D
:109F7800E9FE0346002B14BF01230023DBB2184679
:109F880003B05DF804FB00BF0430002082B00190EC
:109F9800044A019B1344303393F90030184602B049
:109FA800704700BFB02F002082B00190034A019B88
:109FB80052F82330184602B0704700BFB02F002077
:109FC80000B589B00390029113468DF80730FF233E
:109FD8008DF81F309DF80730002B01D0002300E0DA
:109FE800082305939DF80730002B01D0082300E0D3
:109FF8000C230493059B069314E00F4A069B52F822
:10A008002330B3F1FF3F0AD19DF80730029A069931
:10A018000398FFF747FF069B8DF81F3006E0069B65
:10A0280001330693069A049B9A42E6D39DF91F30A2
:10A03800184609B05DF804FBB02F002082B0034633
:10A048008DF807309DF80730094A4FF0FF3142F884
:10A0580023109DF80730072B07D99DF80730083BD8
:10A06800034A1344FF2283F8502000BF02B0704710
:10A07800B02F002000B583B0254B93F85830002B43
:10A0880003D008230093009B3EE000238DF807309F
:10A0980009E09DF807301846FFF73AFF9DF80730AA
:10A0A80001338DF807309DF807301F2BF1D90023B5
:10A0B8008DF8073009E09DF807301846FFF7BEFF16
:10A0C8009DF8073001338DF807309DF807300B2BCA
:10A0D800F1D9042200210F480BF0BBFF072106200D
:10A0E800FFF700FB0620FFF729FB4FF4BE70FFF7D0
:10A0F8005AFB4FF00040FFF77FFB054B012283F826
:10A10800582000230093009B184603B05DF804FB19
:10A11800B02F002004300020044B93F85830002B57
:10A1280014BF01230023DBB218467047B02F00206C
:10A1380000B585B001900091019B1F2B04D92E49D1
:10A1480040F23F1003F0DCFE2C4B93F85830012B03
:10A1580004D029494FF4A07003F0D2FE009B002BD5
:10A1680004D1254940F2411003F0CAFE00230393AD
:10A178000198FFF741FE0346002B02D00823039302
:10A1880034E0009B9B78002B19D001220021019814
:10A19800FFF716FF03468DF80B309DF90B30B3F12E
:10A1A800FF3F09D09DF90B00009B1A78009B5B7854
:10A1B8000199FFF7F3FB05E00423039302E00198FC
:10A1C800FFF798FE039B002B10D1009B5B78012BB7
:10A1D80003D10198FFF713FD02E00198FFF723FD73
:10A1E8000198FFF78AFC0198FFF7A0FE039B184629
:10A1F80005B05DF804FB00BF246D0300B02F0020FC
:10A2080000B583B00190019B1F2B04D91B4940F274
:10A21800771003F075FE0198FFF7EEFD0346002B5B
:10A2280004D116494FF4BC7003F06AFE0198FFF799
:10A23800F7FD0346002B0ED00198FFF7A7FE034653
:10A24800DBB21846FFF7FAFE0198FFF79FFE0346B8
:10A258001846FFF7FFFB0198FFF75AFE0198FFF732
:10A2680081FE0346002B05D00198FFF76DFC01988D
:10A27800FFF76AFE00BF03B05DF804FB246D03001E
:10A2880000B583B00190019B1F2B04D9134940F2FC
:10A29800A91003F035FE0198FFF7AEFD0346002B29
:10A2A80004D10E494FF4D57003F02AFE0198FFF748
:10A2B800B7FD0346002B04D1084940F2AB1003F068
:10A2C8001FFE074A019B1344303393F900301846A8
:10A2D800FFF736FB00BF03B05DF804FB246D0300F5
:10A2E800B02F002000B583B00190019B1F2B04D92B
:10A2F800134940F2B31003F003FE0198FFF77CFD09
:10A308000346002B04D10E494FF4DA7003F0F8FD30
:10A318000198FFF785FD0346002B04D1084940F258
:10A32800B51003F0EDFD074A019B1344303393F950
:10A3380000301846FFF71CFB00BF03B05DF804FBB4
:10A34800246D0300B02F002000B585B00190019B5B
:10A358001F2B04D9104940F2BD1003F0D1FD01981C
:10A36800FFF75EFD0346002B04D10B494FF4DF7065
:10A3780003F0C6FD0198FFF709FE0346DBB29B0018
:10A388008DF80F309DF80F301846FFF7EAF90346AD
:10A39800184605B05DF804FB246D030000B585B0D0
:10A3A8000190019B1F2B04D911494FF4E47003F06D
:10A3B800A7FD0198FFF734FD0346002B04D10C4993
:10A3C80040F2C91003F09CFD0198FFF7DFFD03463A
:10A3D800DBB20C33DBB29B008DF80F309DF80F30E9
:10A3E8001846FFF7BEF90346184605B05DF804FBAA
:10A3F800246D030000B585B00190019B1F2B04D983
:10A40800114940F2D51003F07BFD0198FFF708FDD4
:10A418000346002B04D10C494FF4EB7003F070FD98
:10A428000198FFF7B3FD0346DBB21833DBB29B009C
:10A438008DF80F309DF80F301846FFF792F9034654
:10A44800184605B05DF804FB246D030000B585B01F
:10A4580001900B468DF80330019B1F2B04D91A4934
:10A4680040F2E11003F04CFD0198FFF7C5FC0346EC
:10A47800002B04D114494FF4F17003F041FD019809
:10A48800FFF7CEFC0346002B04D10F4940F2E3103E
:10A4980003F036FD9DF80330002B14BF0123002381
:10A4A800DBB28DF80F30094A019B1344303393F91E
:10A4B80000301A469DF80F3019461046FFF7ACFADF
:10A4C80000BF05B05DF804FB246D0300B02F002029
:10A4D80000B587B0039002910192039B1F2B04D90A
:10A4E800364940F2162003F00BFD0023059303982C
:10A4F800FFF7C6FC0346002B02D00823059357E05C
:10A50800029B9B78C3F34003DBB21A460199039878
:10A51800FFF756FD03468DF813309DF91330B3F15C
:10A52800FF3F43D0029B9B78C3F38003DBB283F0E9
:10A538000103DBB2002B13D0029B9B7803F00103CD
:10A54800DBB2002B03D00398FFF70FFB05E0029B5B
:10A558005B7819460398FFF7E1FA0398FFF7E6FCE2
:10A56800029B9B7803F00203DBB2002B08D09DF915
:10A578001300029B1B781A460399FFF78DF917E021
:10A588009DF91330083B0E4A134493F95010029B6F
:10A598001B789B015AB29DF91330083B0A4351B20C
:10A5A800074A13440A4683F8502001E00423059320
:10A5B800059B184607B05DF804FB00BF246D030037
:10A5C800B02F002000B589B001900B468DF80330FC
:10A5D800019B1F2B04D93D4940F2462003F090FC13
:10A5E8000198FFF74DFC0346002B04D1374940F290
:10A5F800472003F085FC0198FFF730FC0346002B49
:10A608002FD00198FFF7C2FC0346083B304A134499
:10A6180093F950308DF80F309DF80F309B098DF865
:10A628000E309DF80E30032B0BD10198FFF70FFB6E
:10A638000346002B01D0032300E002238DF81F30CE
:10A6480008E09DF80E30012B01D1022300E003231E
:10A658008DF81F309DF81F3019460198FFF7A1FAB1
:10A6680030E00198FFF7DCFB0346002B2AD0019865
:10A67800FFF78CFC03460693069B9BB240339BB2C4
:10A688009B00ADF81630069B1846FFF7D9F8BDF8C1
:10A6980016301846FFF787F89DF80330002B11D0C5
:10A6A8000198FFF773FC03461846FFF77DFC0490FA
:10A6B800049B002B06D00122069B02FA03F31846DE
:10A6C800FFF79AF800BF09B05DF804FB246D03009A
:10A6D800B02F002000B585B00190019B1F2B04D935
:10A6E8001A4940F2732003F00BFC0198FFF7C8FBEE
:10A6F8000346002B04D115494FF41D7003F000FCEC
:10A708000198FFF7ABFB0346002B04D0002101980A
:10A71800FFF747FA15E00198FFF782FB0346002B85
:10A728000FD00198FFF732FC03460393039B1846AA
:10A73800FFF79CF80122039B02FA03F31846FFF780
:10A7480067F800BF05B05DF804FB00BF246D030087
:10A7580000B583B00190019B1F2B04D9084940F232
:10A76800972003F0CDFB0198FFF771FA0346002B01
:10A7780014BF01230023DBB2184603B05DF804FBC5
:10A78800246D030000B595B00023139300230393B1
:10A798004FF48073ADF846300123109300231293D1
:10A7A80021E0BDF846301846FEF7E8FF0346002BC7
:10A7B8000ED01098FFF738F80346002B08D0BDF8E4
:10A7C80046301846FEF7EFFF139A109B1343139376
:10A7D800109B5B001093BDF846300433ADF846304B
:10A7E800129B01331293129B072BDAD94FF4BE70D8
:10A7F800FEF7C4FF0346002B0DD04FF4BE70FEF7E2
:10A80800D2FF139B43F00043139303AB1A46012175
:10A818000020FFF763FA139BDBB2002B29D001233A
:10A8280010930023129321E0109A139B1340002BDE
:10A8380016D01298FFF762F80D901298FFF76EF88D
:10A8480003468DF833301298FFF7AEFB0B900B9B45
:10A85800002B05D09DF833200B9B11460D98984787
:10A86800109B5B001093129B01331293129B072BD2
:10A87800DAD9139B002B80F2EE8000238DF83B3051
:10A888000023029300230F930AE00F9B9B0014AA56
:10A8980013444FF0FF3243F84C2C0F9B01330F93B6
:10A8A8000F9B002BF1D000238DF83B30002312932F
:10A8B80078E06B4A129B1344503393F900308DF8BB
:10A8C8002B309DF82B3023F0C0030993644A129B68
:10A8D8001344503393F90030B3F1FF3F5FD001AB1D
:10A8E80019460998FFF72EFA0346002B57D09DF812
:10A8F8002B309B098DF823300998FFF747FB034657
:10A908001846FFF751FB0790079B002B03D19DF8D2
:10A918002330032B43D19DF82330032B04D102AB02
:10A9280019460998FFF726FA0998FFF7A5F903468B
:10A938008DF81B3003AB19460998FFF703FA059009
:10A94800059B002B03D09DF81B30022B06D0059BDE
:10A95800002B24D19DF81B30032B20D19DF82330E8
:10A96800032B13D19DF81B30022B01D1032300E0E8
:10A9780002238DF813309DF8133019460998FFF714
:10A9880010F99DF83B3001338DF83B30079B002BC5
:10A9980005D09DF82320079B114609989847129BDC
:10A9A80001331293129B032B83D99DF83B30002B64
:10A9B8004CD001238DF83A306B461A46012100200D
:10A9C800FFF78CF900230F9314E00F9B9B0014AA48
:10A9D800134453F8502C0F9B9B0014A90B4453F8B5
:10A9E800443C9A4203D000238DF83A3005E00F9B8F
:10A9F80001330F930F9B002BE7D09DF83A30002BC3
:10AA080003D000238DF83B3020E000230F931AE099
:10AA18000F9B9B0014AA134453F8502C0F9B9B00C8
:10AA280014A90B4443F8442C0F9B9B0014AA13440D
:10AA380053F8482C0F9B9B0014A90B4443F84C2C4B
:10AA48000F9B01330F930F9B002BE1D09DF83B30F8
:10AA5800002B7FF428AF00BF15B05DF804FB00BFE2
:10AA6800B02F002008B5064B1B68002B03D1054901
:10AA7800512003F045FA024B1B68984700BF08BDF8
:10AA88000C300020746D030082B00190019B044AD1
:10AA9800934201D1034B00E00023184602B07047EF
:10AAA800002000400C30002000B587B001900091D4
:10AAB800019B002B03D11C49772003F021FA019850
:10AAC800FFF7E2FF0490049B002B25D000238DF8AC
:10AAD800173000238DF80B300DF10B031846FCF7E7
:10AAE8003FFD049B1B79002B03D001238DF8173001
:10AAF80005E0049B009A1A60049B01221A719DF8D4
:10AB08000B301846FCF742FD9DF81730002B03D098
:10AB180011230393039B02E000230393039B18462E
:10AB280007B05DF804FB00BF746D030000B585B085
:10AB38000190019B002B03D10A499B2003F0E0F907
:10AB48000198FFF7A1FF0390039B002B05D0039BFF
:10AB580000221A60039B00221A7100BF05B05DF83D
:10AB680004FB00BF746D030082B003468DF8073004
:10AB78009DF8073003F01F0205499DF907305B096E
:10AB8800012000FA02F241F8232000BF02B070470A
:10AB980000E100E082B003468DF807309DF80730E9
:10ABA80003F01F0206499DF907305B09012000FAEE
:10ABB80002F2603341F8232000BF02B0704700BFA3
:10ABC80000E100E082B0034600918DF807309DF95E
:10ABD8000730002B0CDA009BDAB20C499DF80730DD
:10ABE80003F00F03043B5201D2B20B441A7609E07A
:10ABF800009BDAB206499DF907305201D2B20B44E4
:10AC080083F8002300BF02B0704700BF00ED00E0EA
:10AC180000E100E082B00190019B03F06043B3F1D2
:10AC2800005F0CBF01230023DBB2184602B0704757
:10AC380082B00190019B1B0B5BB2184602B07047B3
:10AC480000B583B003460A468DF8073013468DF8E1
:10AC580006309DF80630012B03D99DF80630032BEA
:10AC68000BD99DF80630042B03D99DF80630072B25
:10AC780003D908496B2003F043F99DF806209DF994
:10AC8800073011461846FFF79DFF00BF03B05DF877
:10AC980004FB00BFC46D030000B583B003468DF804
:10ACA80007309DF907301846FFF774FF9DF9073004
:10ACB8001846FFF759FF00BF03B05DF804FB82B0E8
:10ACC80001900B468DF803309DF80330019A134428
:10ACD80001221A6000BF02B0704784B001900B4691
:10ACE800ADF80230BDF80230019A134400221A6010
:10ACF800BDF80230019A13441B680393039B00BFFD
:10AD080004B0704782B001900B46ADF80230BDF830
:10AD18000230019A13441B68002B14BF012300233F
:10AD2800DBB2184602B0704782B001900091019BD7
:10AD3800009AC3F8042300BF02B0704782B00190A4
:10AD48000091019B009AC3F8082300BF02B0704726
:10AD580082B00190019B0622C3F8002500BF02B013
:10AD6800704784B0039002910192039B029AC3F842
:10AD78000825039B019AC3F80C2500BF04B070474F
:10AD880082B001900091019B009AC3F8242500BF6E
:10AD980002B0704784B00190019BD3F8C434039388
:10ADA800019B039AC3F8C424039B184604B0704758
:10ADB80082B001900B468DF803309DF80320019B6B
:10ADC800C3F8882500BF02B0704784B00390029191
:10ADD8000192029A039BC3F84425039B019AC3F886
:10ADE800482500BF04B0704784B0039002910192D7
:10ADF800029A039BC3F83425039B019AC3F83825AC
:10AE080000BF04B0704782B001900091019B009A86
:10AE1800C3F8002200BF02B0704782B00190019BC6
:10AE2800D3F84C35184602B0704782B00190019BA8
:10AE3800D3F83C35184602B0704782B00190019BA8
:10AE48000122C3F8502500BF02B0704782B00190BC
:10AE5800019B0022C3F8502500BF02B0704782B0A2
:10AE68000190019B0122C3F8402500BF02B0704742
:10AE780082B00190019B0022C3F8402500BF02B0B8
:10AE88007047000000B583B00190019B1B681F2B21
:10AE980004D905494FF4E87003F032F84FF0A043A5
:10AEA800184603B05DF804FBF46D030000B585B0E7
:10AEB8000190084611461A4603468DF803300B46A2
:10AEC8008DF8023013468DF8013001AB1846FFF7B4
:10AED800D9FF03909DF803209DF802305B001A43C8
:10AEE8009DF801309B001A439DF818301B0242EA76
:10AEF80003019DF81C301B04019A1943039B02F5BA
:10AF0800E07243F8221000BF05B05DF804FB84B07E
:10AF1800019003230393019B03F00203002B02D04B
:10AF280048F201230393019B03F00403002B02D092
:10AF380048F202230393039B184604B070470000AD
:10AF480000B58BB00590049103920293049B002BEB
:10AF580003D14A49982002F0D3FF049B1A68049B46
:10AF68005B689A4203D14549992002F0C9FF059BC5
:10AF78001B791A46342303FB02F3414A134409930D
:10AF8800099B93F82D30002B03D008230793079BC8
:10AF980070E0059B1A68059B1B791946394B53F8D5
:10AFA800213019461046FFF77FFD0346002B03D0DA
:10AFB80011230793079B5DE0099B039A1A60099B7D
:10AFC800029A5A60099B00229A60099B002283F822
:10AFD8003020099B002283F82F20049B5A7B099B71
:10AFE80083F83220049B18680023019306230093FA
:10AFF800032300220021FFF759FF049B5868002310
:10B00800019306230093032300220021FFF74EFF3C
:10B01800059B1B680893049B1968049B5B681A4688
:10B028000898FFF79EFE049B9B6819460898FFF74F
:10B03800A7FE099B1B68002B15D0059B1B681846AB
:10B04800FFF7F6FD03461A46049B1B7B194610467C
:10B05800FFF7F6FD059B1B681846FFF7E9FD034659
:10B068001846FFF719FE099B012283F82D200023BB
:10B078000793079B18460BB05DF804FB246E03008A
:10B0880014300020706E030000B585B00190019B5C
:10B098001B791A46342303FB02F30C4A1344039327
:10B0A800039B93F82D30012B03D00949FA2002F0B5
:10B0B80027FF019B1B681846FFF74AFE039B0222E5
:10B0C80083F82D2000BF05B05DF804FB1430002084
:10B0D800246E030000B583B001900091009B03F03B
:10B0E8000103002B03D00198FFF7A7FE02E00198A7
:10B0F800FFF7ACFE009B03F00203002B03D001987E
:10B10800FFF7ADFE02E00198FFF7B2FE00BF03B003
:10B118005DF804FB30B589B0039002910192009369
:10B128000023079308238DF81B304FF48273ADF882
:10B138001830019BDB681846FFF76CFD034683F067
:10B148000103DBB2002B03D010230793079B9EE17A
:10B15800B1490298FFF7F2FD039B93F82F30DBB259
:10B16800002B09D0039B9B6819460298FFF7DCFD6A
:10B1780011230793079B8AE1009B03F00403002B2C
:10B1880006D1009B03F01003002B01D1012300E03E
:10B19800002303F00103DAB2039B83F82F20039BFB
:10B1A800019A03F10C0415460FCD0FC42B682360D8
:10B1B800009B1B0903F00103002B14BF012300238C
:10B1C800DAB2039B83F83020019B5B78194602981A
:10B1D800FFF7EEFD4FF482710298FFF77EFD4FF402
:10B1E80092710298FFF779FD00990298FFF772FFB4
:10B1F800019B1B78032B00F2E88001A252F823F090
:10B2080047B30200A1B30200F5B2020019B202006E
:10B21800009B03F01003002B04D080494FF4AD705D
:10B2280002F06EFE009B03F00803002B04D07B495C
:10B2380040F25B1002F064FE009B03F00403002B55
:10B2480004D076494FF4AE7002F05AFE019B1B6998
:10B258001846FFF7DFFC034683F00103DBB2002B3F
:10B2680003D010230793079B11E14FF480710298D4
:10B27800FFF7C9FD019BD968019B5B681A460298D4
:10B28800FFF7A3FD4FF4A8710298FFF726FD4FF4CE
:10B29800B0710298FFF721FD4FF4A4710298FFF7EF
:10B2A8001CFD20210298FFF70AFD08210298FFF7EC
:10B2B80006FD00BF4FF4A8710298FFF723FD03466F
:10B2C80083F00103DBB2002BF4D14FF4A87102988C
:10B2D800FFF703FD019B1969019B9B681A460298B9
:10B2E800FFF773FD039B4E4A9A6071E0019BD96892
:10B2F800019B5B681A460298FFF767FD019B1B6973
:10B308001846FFF787FC034683F00103DBB2002BE6
:10B3180003D010230793079BB9E0019B1969019B90
:10B328009B681A460298FFF75FFD4FF48451029814
:10B33800FFF769FD039B40F202229A6048E0019BF7
:10B34800D968019B5B681A460298FFF73EFD009B8F
:10B3580003F02003002B11D04FF480710298FFF7FF
:10B3680052FD039B2E4A9A604FF4A4710298FFF78E
:10B37800B4FC4FF4A473ADF8183008E04FF4007132
:10B388000298FFF740FD039B40F202229A602021B9
:10B398000298FFF794FC1BE0019BD968019B5B684E
:10B3A8001A460298FFF720FD4FF480510298FFF7E4
:10B3B8002AFD039B40F202229A6000238DF81B307D
:10B3C80020210298FFF77BFC02E00723079300BFC8
:10B3D800009B03F00803002B09D1019B1B78032B6A
:10B3E80005D09DF81B3019460298FFF768FC039BAF
:10B3F8001B68002B2FD0009B03F00403002B03D005
:10B40800039B4FF400729A60039B9B68194602984D
:10B41800FFF78AFC3AE000BF02029C01246E030099
:10B42800000204004FF492710298FFF76BFC034688
:10B43800002B10D04FF492710298FFF74EFC202198
:10B448000298FFF73CFC14210298FFF738FC4FF4F0
:10B458008273ADF81830BDF8183019460298FFF716
:10B4680051FC034683F00103DBB2002BDAD10298CA
:10B47800FFF790FC0590039B002283F82F20059B83
:10B48800002B03D00598FFF742FD0790079B18464D
:10B4980009B030BD00B587B0039002910192039BBB
:10B4A8001B79002B07D1029B5B68FF2B03D8029BFB
:10B4B8009B68FF2B10D9039B1B79012B07D1029B9B
:10B4C8005B68FF2B03D8029B9B68FF2B04D91B49A1
:10B4D8004FF4EC7002F014FD00230593039B1B79D5
:10B4E8001A46342303FB02F3154A13440493049BBE
:10B4F8001B68002B08D1029B1B78022B04D10F4933
:10B508004FF4EF7002F0FCFC049B1B68002B08D181
:10B51800029B1B78032B04D1084940F2DF1002F08C
:10B52800EFFC039B1968019B029A0498FFF7F2FD50
:10B538000590059B184607B05DF804FB246E0300D0
:10B548001430002000B58BB00390019200930B4695
:10B558008DF80B3005AB00221A605A609A60DA60E9
:10B568001A619DF80B308DF81530009B0693019BEE
:10B5780008939DF83030002B01D0202200E00022F3
:10B5880005AB19460398FFF785FF034618460BB02D
:10B598005DF804FB00B58BB00390019200930B4655
:10B5A8008DF80B3005AB00221A605A609A60DA6099
:10B5B8001A6101238DF814309DF80B308DF8153081
:10B5C800009B0693019B089305AB0022194603983C
:10B5D800FFF760FF034618460BB05DF804FB000058
:10B5E80030B58BB001900091009B1B68002B04D1F3
:10B5F8007E4940F22D2002F083FC4FF492710198AD
:10B60800FFF780FB0346002B27D04FF49271019877
:10B61800FFF763FB4FF482710198FFF773FB034652
:10B6280083F00103DBB2002B17D0009B9B681946FF
:10B638000198FFF783FB009B02229A60009B9B689E
:10B6480019460198FFF770FB20210198FFF737FB97
:10B6580014210198FFF733FBC5E04FF4827101987C
:10B66800FFF750FB0346002B50D04FF4827101982E
:10B67800FFF733FB009B04AC03F10C050FCD0FC49F
:10B688002B682360009B93F82E30002B1BD0009B67
:10B698001B7B012B04D10198FFF7C7FB034603E08E
:10B6A8000198FFF7BAFB03460593009B1B7B022B0F
:10B6B80004D10198FFF7B9FB034603E00198FFF7AF
:10B6C800ACFB034606934FF4B0710198FFF705FBF6
:10B6D8004FF4AE710198FFF700FB009B93F83030F0
:10B6E80083F00103DBB2002B04D1009B93F82E30CA
:10B6F800002B4CD000210198FFF785FB009B00220E
:10B708009A603B490198FFF719FB40E04FF4A47198
:10B718000198FFF7E2FA009B1B7B002B1BD1009BD3
:10B7280004AC03F10C050FCD0FC42B682360009BFC
:10B7380093F8303083F00103DBB2002B27D00021CF
:10B748000198FFF760FB009B00229A602849019846
:10B75800FFF7F4FA1BE04FF400710198FFF753FB71
:10B76800009B40F202229A6021490198FFF7E6FA0D
:10B77800009B9B6819460198FFF7D6FA08210198A3
:10B78800FFF79DFA20210198FFF799FA2BE001981D
:10B79800FFF700FB0990099B03F00203002B03D07D
:10B7A80001238DF80C300BE0099B03F00403002BF8
:10B7B80003D002238DF80C3002E000238DF80C3002
:10B7C800009B93F8303083F00103DBB2002B03D0E9
:10B7D800009B002283F82F20009B1B68009A516869
:10B7E80003AA104698470BB030BD00BF246E030073
:10B7F80002029C0108B503490348FFF7F1FE00BFA8
:10B8080008BD00BF143000200030004008B50349CF
:10B818004FF04020FFF7E4FE00BF08BD483000208D
:10B82800054B1B78002B04D1034B01221A7000230F
:10B8380000E08523184670477C30002010B584B09E
:10B8480001900091009B0393054A039B52F8234003
:10B85800019B93E80700A04700BF04B010BD00BFDC
:10B868008030002000B587B0039002910192039BBD
:10B878001B7905930749059B019A41F82320059BED
:10B88800054A0299039801F015FA0346184607B0CD
:10B898005DF804FB8030002045B8020000B585B093
:10B8A8000190019B002B0AD0074B43F0010303933F
:10B8B800019B9B010293039B0298984700E000BFFD
:10B8C80005B05DF804FB00BFB06E030000B583B09F
:10B8D8000190019B1B681F2B04D905494FF4E870A0
:10B8E80002F00EFB4FF0A043184603B05DF804FBCE
:10B8F800786E030000B585B0019001AB1846FFF7DC
:10B90800E5FF0390019B012202FA03F3194603980D
:10B9180000F035F800BF05B05DF804FB00B585B050
:10B92800019001AB1846FFF7D1FF0390019B01225C
:10B9380002FA03F31946039800F02BF800BF05B08C
:10B948005DF804FB00B585B0019001AB1846FFF720
:10B95800BDFF0390039800F00AF80246019B22FA03
:10B9680003F303F00103184605B05DF804FB82B049
:10B978000190019BD3F81035184602B0704782B089
:10B9880001900091019B009AC3F8082500BF02B0FE
:10B99800704782B001900091019B009AC3F80C2572
:10B9A80000BF02B0704700B585B001904FF0A042CB
:10B9B800019B1B6803F5E07340F20C6142F8231009
:10B9C8004FF0A042019B5B6803F5E07340F20C6105
:10B9D80042F82310019B1B681846FFF78BFF019B59
:10B9E8005B681846FFF786FF4FF0A042019B1B6873
:10B9F80003F5E07340F20D6142F823104FF0A042C6
:10BA0800019B5B6803F5E07340F20D6142F8231077
:10BA18000420FFF743FF002303931EE0019B5B68AC
:10BA28001846FFF78FFF0346002B03D0039B002B1C
:10BA380017D124E0019B1B681846FFF76FFF04200D
:10BA4800FFF72CFF019B1B681846FFF753FF0420E4
:10BA5800FFF724FF039B01330393039B082BDDDDD2
:10BA680000E000BF019B5B681846FFF757FF042002
:10BA7800FFF714FF019B5B681846FFF73BFF05B013
:10BA88005DF804FB00B589B001900091009B079315
:10BA9800019B1B788DF80C30019B1B798DF81030B9
:10BAA800019B5B798DF81130019B9B68DBB28DF8A7
:10BAB8001230019BDB68DBB28DF81330019B1B69E8
:10BAC8000593019B5B690693074A079B52F823304D
