:020000022000DC
:106000000000042061630200C1630200C363020058
:10601000C5630200C7630200C963020000000000FC
:10602000000000000000000000000000CB63020040
:10603000CD63020000000000CF630200D1630200C4
:1060400095750200D3630200817B02005186020035
:1060500061860200D3630200DD790200D36302008F
:10606000A18E0200B18E0200D3630200D36302004E
:10607000D3630200D3630200D3630200D363020040
:10608000D3630200E1670200D3630200D36302001E
:106090007D680200D36302009DB20200D363020058
:1060A000D3630200D3630200D3630200D363020010
:1060B000D3630200D3630200000000000000000070
:1060C000D3630200D3630200D3630200758F020022
:1060D000D3630200D3630200D3630200D3630200E0
:1060E000D3630200D3630200D36302000000000008
:1060F00000000000D363020000000000D363020030
:10610000000000000000000000000000000000008F
:10611000000000000000000000000000000000007F
:10612000000000000000000000000000000000006F
:10613000000000000000000000000000000000005F
:10614000000000000000000000000000000000004F
:10615000000000000000000000000000000000003F
:10616000000000000000000000000000000000002F
:10617000000000000000000000000000000000001F
:10618000000000000000000000000000000000000F
:1061900000000000000000000000000000000000FF
:1061A00000000000000000000000000000000000EF
:1061B00000000000000000000000000000000000DF
:1061C00000000000000000000000000000000000CF
:1061D00000000000000000000000000000000000BF
:1061E00000000000000000000000000000000000AF
:1061F000000000000000000000000000000000009F
:10620000364937480A1A02D0072291438D4635494C
:1062100035480A1A06D00722914381F309880222E1
:1062200082F3148831483249324A00F045F8324846
:106230003249334A00F040F832483349334A00F0DB
:106240003BF833483349344A00F036F83348344990
:10625000344A00F031F834483449354A00F02CF81B
:1062600034483549354A00F027F835483549002289
:1062700000F02DF834483549002200F028F8344861
:106280003449091A082903DB002202600430016046
:10629000314A90471F482049884205D0026804309F
:1062A00003B4904703BCF7E700208646EC46002085
:1062B00000212A4A9047FEE7884207D0521A05D0AB
:1062C000037801300B700131013AF9D170478842EF
:1062D00002D002700130FAE770470000000004208D
:1062E00000E00320000004200000042078C5020024
:1062F000982B00200E2C0020D8630200D8630200E7
:10630000BCC2020078C50200982B0020982B002008
:106310002CC302002CC302002CC302002CC30200B9
:106320002CC302002CC302002CC302002CC30200A9
:1063300078C50200F0C50200102C0020102C0020AF
:10634000102C0020880101208801012088010120F3
:1063500088010120882101208963020055990200EB
:106360001048804710484FF00701884385460F4882
:1063700080470F48016841F470010160BFF34F8FFF
:10638000BFF36F8FFFF73CBF0A480B490B4A8842A7
:1063900007D0521A05D0037801300B700131013A51
:1063A000F9D17047D563020000000420717102002A
:1063B00088ED00E02CC30200982B0020982B0020D1
:1063C000FEE7FEE7FEE7FEE7FEE7FEE7FEE7FEE7A5
:0863D000FEE7FEE7704700BF85
:1063D80005F0B2BB2DE9F04F3B4F89B000263B4B8F
:1063E8001B78F5B2AB4202D809B0BDE8F08F384B44
:1063F800196811F835000124A0F12002C0F120032A
:1064080004FA02F924FA03F349EA0309D7E9002355
:1064180004FA00F8CDE9042302EA080203EA0903B2
:10642800134301EBC50B4CD0DDE9042322EA080233
:1064380023EA0903C7E90023079101F0BBFA07998A
:10644800844611F83500A0F12002C0F1200324FA97
:1064580003F304FA02F21A4304FA00F300931D4B03
:106468000192DDE90045D3E9002314401D4022468E
:106478002B465FFA8CF40025CDE90445049CA0F175
:106488002005AC400394049CC0F1200124FA01F1DA
:10649800039C0C430499039481400291DDE9024571
:1064A800AB4208BFA2420CD19BF801104B1E5942C7
:1064B8005941A1EB0C02DBF804305142514103B1C0
:1064C800984701368BE700BF402C0020102C002095
:1064D800482C0020382C00202DE9F84F0646244887
:1064E80000F0A4FB002841D10123A6F12001C6F148
:1064F800200203FA01FB23FA02F203FA06FA1D4B03
:10650800D3E900014BEA020B00EA0A0801EA0B0989
:1065180058EA09021F4623D1304601F04BFA164BC0
:10652800B8B1D3E9000140EA0A0441EA0B05C3E91E
:106538000045D7E900234BEA0305104B0C481968BE
:106548004AEA0204C7E900450022BDE8F84F00F016
:1065580029BBD3E9000120EA0A0421EA0B05E6E792
:1065680020EA0A0421EA0B05C3E90045BDE8F88FD3
:10657800182C0020402C0020382C0020142C00203F
:10658800042A2DE9F34105460C4616463AD901F08E
:10659800A1F8D8B11C4B1D491D601D4BDFF8848044
:1065A8001C701C4B00221E600023C1E900231A49FD
:1065B800C1E90023013CE4B200260327FF2C0CD1DB
:1065C800164A1748002100F0DBFA03E001F04AF808
:1065D8000028DFD002B0BDE8F08123B205EBC3028A
:1065E80001A992788DF8052015F833008DF806601A
:1065F80042468DF8047001F00DF9013CE4B2002820
:10660800DCD0E7E70720E5E7482C0020382C0020FD
:10661800102C0020142C0020402C0020DD630200E8
:106628002CC30200E164020070B5084D084E002436
:106638002B789C4201D3002070BD3368012113F8E8
:10664800340001F06DF90134F2E700BF102C00208E
:10665800482C00201FB50021039001AA44F2010034
:10666800CDE9011100F004F805B05DF804FB000065
:1066780072B6094B1B68DB0700D500BEBFF34F8F0E
:106688000649074BCA6802F4E0621343CB60BFF3C4
:106698004F8F00BFFDE700BFF0ED00E000ED00E028
:1066A8000400FA0549B152B1531E1A4007D182605D
:1066B80001608380C260104670470E207047092031
:1066C800704710B58468C2688388121B934208D348
:1066D800C26813400268D154C3680133C360002004
:1066E80010BD0420FCE78268C3689A420AD0826819
:1066F800838813400268D35C0B708368013383601E
:106708000020704705207047094A53789178013373
:10671800DBB2994208BF0023117899421FBF03706A
:106728005078182303FB002014BF04300020704762
:106738004C2C002073B5054602A8002400F8014D32
:106748000E4600F057FB0DF10600FFF7DDFF90B194
:1067580006700A4B9DF8062045605A709DF80700A0
:1067680000F06CFB24B9064B4FF48012C3F80021EB
:10677800204602B070BD0424F0E700BF4C2C002076
:1067880000E100E0024B4FF43C6043F0010318477E
:1067980030C3020038B50C4B0C4C4FF40032C3F830
:1067A800802001254FF48033C4F84833C4F80833F7
:1067B8006560FFF7E7FF064BA56000241C60FFF744
:1067C800E1FF044B1C7038BD00E100E000100140FF
:1067D800682D0020592D0020F8B51F4B1F491B6854
:1067E8000025C1F84051C1F84451C1F84851C1F8D9
:1067F8004C51C1F80051C1F804514BB3D1F80445CC
:1068080017490968641A24F07F442F461A68A2427F
:1068180009D8A41A15441A7CDE691AB11F74D3E981
:1068280005209047AEB90F4B0F4A197813788B4261
:1068380005D10133DBB2022B08BF00231370127895
:106848000A4B43F822500A4B4FF48012C3F8002138
:10685800F8BD3346DAE700BF6C2D00200010014078
:10686800682D0020642D0020652D00205C2D00205F
:1068780000E100E02DE9F74F9E4A9F491378097817
:106888009E4D99423CD00133DBB2022B08BF002356
:1068980013709B4912789B4B0F6853F822003B18E2
:1068A80023F07F4300220B602B681646144694465B
:1068B80013B942B12B6006E0196881420ED902B1C2
:1068C8002B60091A19604FF001082B68DFF83CA209
:1068D80000930027BEB9DFF83CB260E0401A0C44D0
:1068E800D968C3F800C0D3F81CE031B13A1922F0D6
:1068F8007F42C3E90121DE611E4601227346D7E7C4
:106908000026B046E1E73446F6697D4A63681268B6
:10691800DFF804C2A068991A21F07F41614500F2AE
:10692800A58001442160012222742A680023C4E959
:106938000133E361002A40F0A2802C60CAE75A1CA8
:106948009BF80210D2B291428BF8002004BF0022BB
:106958008BF80020182202FB03B32A6819799C6877
:10696800022974D003297ED0012918D1217CB1B91C
:10697800DA6862601A69A2605A699B69A361624B0E
:10698800E2601B78002BC0D06160BEE79C4200F03B
:1069980093809946DB69002BF8D1002323749BF878
:1069A80000309BF801209A42C9D12B682FB9009A70
:1069B800934202D1B8F1000F43D0002B79D0D3F81D
:1069C80000A0524D4E4BD5F804751C68DFF84C8179
:1069D8003E1B98F8003026F07F4603369BB94FF4EB
:1069E8008033C5F84433C5F80433494B4FF40032BB
:1069F8004FF00109C3F880211A60C5F80090FFF72D
:106A0800C1FE88F80090B2452CBF5444A41924F064
:106A18007F44C5F84045D5F80435DB1B23F07F4398
:106A2800E41B033324F07F44A3420AD9D5F8043584
:106A3800C5F84035FFF7A6FE354B4FF40032C3F8D2
:106A48000021314B00221A7003B0BDE8F08F1346C5
:106A58009146A0E71174D2690123002AFAD1002BCC
:106A68009DD02A609BE700231946F6E7D31A23F046
:106A78007F43834234BFC31A0023236053E721684E
:106A88001368994213D8591A1160E26155E7091A37
:106A9800D8691A4638B1034618688842F7D3401AAD
:106AA8001860184613462160E061DC6112E713465E
:106AB800F2E7FFF76FFEC4E74C450DD1D3692B60B1
:106AC80053B90F4801920121CAF8081003600E4B10
:106AD8001970FFF757FE019AE1692368C9F81C107D
:106AE80011B1086803440B602B689A4218BF01274C
:106AF80053E700BF642D0020652D00206C2D002079
:106B0800682D00205C2D0020582D00200010014029
:106B180000E100E04C2C0020FEFF7F00592D0020F2
:106B280008B5FFF737FE104B00200B2218809A702B
:106B38000E4B18600E4B18700E4B18700E4B4FF41E
:106B48008012E021C3F8802183F814131A6002F13F
:106B58008042A2F56F22C2F8080583F81113074B8B
:106B6800D2F804251A6008BD4C2C00206C2D00209A
:106B7800642D0020652D002000E100E0682D002034
:106B8800074B9B784BB132B128B10368187C20B908
:106B980059745A617047072070470820704700BF32
:106BA8004C2C00202DE9F7431D4FBB7805460E46B7
:106BB80090469BB390B304292ED9436973B3437CA1
:106BC80002A80024012B00F8014D0CBF8946A146FC
:106BD80000F010F90DF10600FFF796FDD0B1012382
:106BE8000370104B4560D3F80435C0E90498C0E938
:106BF80002369DF806307B709DF8070000F01EF9FC
:106C080024B9094B4FF48012C3F80021204603B081
:106C1800BDE8F0830424EFE70724F7E70824F5E745
:106C28004C2C00200010014000E100E0064A927858
:106C38003AB130B1426922B1002202740221FFF751
:106C480079BD0820704700BF4C2C00200648074A31
:106C580003780749D35C012213B1043001F0EEBB7D
:106C68000C3001F0BFB900BF982B0020E42D0020A4
:106C7800982D00200648074A03780749D35C01226B
:106C880013B1043001F096BB0C3001F061B900BFBC
:106C9800982B0020E42D0020992D002037B5057889
:106CA800012D04D035D3022D28D003B030BD436860
:106CB8001F4C19782046FFF704FD78B11D4B019051
:106CC8008DF800501B6868469847A168E368A28859
:106CD8005B1A9A420ED3FFF7B9FFE6E7A268E368AA
:106CE8009A42F2D002AB134A03F8080D126818460C
:106CF8009047EAE7104B01221A70D6E7C368019360
:106D08008DF80050FFF7A2FF0A4B1B6868469847AA
:106D1800CBE70A490A48FFF7E6FC10B9FFF7AAFFD4
:106D2800C3E702A8032300F8083D024B1B68EEE7FF
:106D3800742D0020702D0020842D0020992D002016
:106D4800882D0020F0B51F46234B89B006461A60EF
:106D58000C4600293DD08A8820480968FFF7A2FC24
:106D6800002834D1A289A1681D48FFF79BFC0028A0
:106D78002DD11C4D0FCD6C460FC495E80F0084E84B
:106D88000F0073690693337C174A18488DF81C70F6
:106D9800003318BF01238DF81430737C002B14BF07
:106DA8000E2300238DF81530F3680293B36803931C
:106DB8003368019369467368009300F09FFB30B90C
:106DC8000B4B18703368013301D0FFF73FFF09B050
:106DD800F0BD0720FBE700BF702D0020742D0020B8
:106DE800882D002038C30200A56C0200982B0020D3
:106DF800842D002070B5EFF3108672B60C4A9468A3
:106E080001239CB993600B4B0B4DD3F8801029409C
:106E18001160C3F88050D3F8841051604FF0FF32EE
:106E2800C3F88420047006B962B670BD0370FAE72F
:106E38009C2D002000E100E0FC06FFBD084B9A688D
:106E480010B55AB150B9EFF3108172B6054A1C68F3
:106E580014605C685460986001B962B610BD00BFE8
:106E68009C2D002000E100E037B550E8023F1FFAF2
:106E7800A3F5C488A54202BFBFF32F8F00220DE0FF
:106E8800C48925448489A54228BF2D1BC3EA05452A
:106E980040E80254002CE8D14FF001028DF803209D
:106EA8000193019B9DF803200B6002F0FF0322B1C0
:106EB8004B880068184403B030BD1846FBE70A88C1
:106EC8004B889A4209D150E8022FC2EA224240E890
:106ED8000223002BF7D1012070470020704701F0F2
:106EE8001F024B090121914000EB830000F013B809
:106EF80001F01F0301229A404B0900EB8300D143A4
:106F080000F014B84B0901F01F0150F82300C840E5
:106F180000F00100704750E8003F43EA010240E8F2
:106F2800002C9CF0000FF6D11046704750E8003F47
:106F380003EA010240E8002C9CF0000FF6D110464D
:106F4800704729DF704728DF704770B503689D6870
:106F580086B004460E466DB114220021684604F03E
:106F680086FDA3680593237901962BB1012B0DD0DB
:106F78006846A84706B070BD01238DF80030236924
:106F88000293E368039363690493F1E702238DF89E
:106F98000030E3681B030293F5E70000034B187AFF
:106FA8000122B0FA80F05A7440097047B82D0020C9
:106FB80070B5244D244E2B7A2C463BB923492448DE
:106FC800FFF752FF306008B9686070BD0223237272
:106FD80033681A7972B1012A24D018460321FFF7C1
:106FE800B4FF00232372636018491948BDE8704054
:106FF800FFF765BFD3E90520121AB2F5805F28BFF5
:107008004FF48052D3E903159208012A014438BF8E
:1070180001222844FFF795FF50B11128DDD1012343
:107028002372D2E7D3E903021044FFF78CFFF3E79A
:10703800237C002BC9D10146BDE87040022000F036
:1070480009B800BFB82D0020D02D0020CC2D00207D
:10705800A82D002038B5831E012B45D8234C237A50
:10706800002B41D0022B09D1032830D0204B1B68BC
:107078000022E2601A793AB1012A22D0637C7BBBF4
:10708800BDE83840FFF794BFD3E905128D1AB5F56E
:10709800805F94BF521902F580529A619142EDD1F6
:1070A80002284FF0000308BF19462372104B18BF7F
:1070B8000D211868FFF749FF0E490F48FFF7FFFE3B
:1070C800DCE71A6901321A615B699A42E7E7E3680B
:1070D8000133082B01D8E360D0E70023E360DFE742
:1070E800BDE8384004F0B2B838BD00BFB82D002064
:1070F800D02D0020CC2D0020A82D002000F0FD036D
:10710800012B08D1044B00225A74421E50425041B0
:107118001874FFF74DBF7047B82D00200B684A68F8
:107128004360934208BF0023016008BF4360704773
:10713800436843B10268916852680B4493424360C4
:1071480004BF002343607047054B1B68082B01BF31
:10715800044B1868B0FA80F0400918BF0020704747
:10716800300100103401001008B54FF080430022B0
:10717800C3F80C21C3F81021C3F838254FF080520A
:1071880003F54043D2F80414C3F82015D2F80814C4
:10719800C3F82415D2F80C14C3F82815D2F8101423
:1071A800C3F82C15D2F81414C3F83015D2F81814F3
:1071B800C3F83415D2F81C14C3F84015D2F82014BB
:1071C800C3F84415D2F82414C3F84815D2F8281483
:1071D800C3F84C15D2F82C14C3F85015D2F8301453
:1071E800C3F85415D2F83414C3F86015D2F838141B
:1071F800C3F86415D2F83C14C3F86815D2F84014E3
:10720800C3F86C15D2F84424C3F87025FFF79CFF27
:1072180010B1384B384A1A60FFF796FF18B1374B50
:10722800FB22C3F81825FFF78FFF48B13449354BC7
:107238000A681B6822F00F0203F00F0313430B6068
:10724800FFF782FF18B1304B4FF400721A604FF00D
:107258008043D3F80024D20744BF6FF00102C3F87B
:1072680000242A4AD2F8883043F47003C2F88830E0
:10727800BFF34F8FBFF36F8F4FF01023D3F8002267
:10728800002A03DBD3F80432002B2FDA204B01222B
:10729800C3F80425D3F80024002AFBD04FF01022AD
:1072A8001221C2F80012D3F80024002AFBD04FF0B4
:1072B80010231222C3F80422154B1A46D3F80014DF
:1072C8000029FBD00021C3F80415D2F80034002BA4
:1072D800FBD0BFF34F8F0D490E4BCA6802F4E06232
:1072E8001343CB60BFF34F8F00BFFDE70A4B0B4A38
:1072F8001A6008BD8C5600404881030000F0004029
:10730800E40E0040580200104096024000ED00E0F4
:1073180000E001400400FA05AC2B00200090D003E7
:10732800074B1B5C1F2B8ABF064A4FF0A04203F095
:107338001F03D2F80405D840C04300F0010070478D
:107348005CC3020000030050074B1B5C1F2B86BF69
:1073580003F01F0305494FF0A041012202FA03F38D
:10736800C1F80C35704700BF5CC302000003005031
:10737800074B1B5C1F2B86BF03F01F0305494FF00B
:10738800A041012202FA03F3C1F80835704700BF93
:107398005CC302000003005008B50020FFF7E8FFB7
:1073A8000120FFF7E5FF0220FFF7E2FF0320BDE819
:1073B8000840FFF7DDBF08B50020FFF7C5FF012033
:1073C800FFF7C2FF0220FFF7BFFF0320BDE8084018
:1073D800FFF7BABF0A4B185C1F288ABF094B4FF04A
:1073E800A04300F01F00D3F804250121814021EAC1
:1073F80002000A40C3F80805C3F80C25704700BF0F
:107408005CC3020000030050074B1B5C1F2B8ABFA4
:10741800064A4FF0A04203F01F03D2F81005D840E7
:10742800C04300F00100704758C302000003005039
:107438000B2809D00C2809D0182809D019280CBF06
:1074480003204FF0FF30704700207047012070473D
:1074580002207047C20710B504460CD54FF0A04370
:107468000322C3F83427C3F83827C3F83C27C3F8E6
:107478004027FFF791FFA3070AD54FF0A0430C223E
:10748800C3F82C27C3F83027C3F86027C3F864274C
:1074980010BD00001FB503788DF8003043680193D4
:1074A800037A8DF80830C3680393054A054B68468C
:1074B80053F8213052F82110984705B05DF804FBC5
:1074C800D42D0020DC2D00201FB503788DF8003066
:1074D8004368019383688DF80830C3680393054AAD
:1074E800054B684653F8213052F82110984705B0EB
:1074F8005DF804FBD42D0020DC2D0020F0B5194BDD
:107508000678DFF870E043F82620174B94460A699E
:1075180043F826204B7F0EF806300C4607460FCC62
:1075280089B06D460FC594E80F0085E80F001EF876
:107538000630049653B1BCF1000F0C4A694608BFE7
:107548000022381D00F054FE09B0F0BDBCF1000F58
:10755800074A694608BF002207F10C0000F01EFC2C
:10756800F2E700BFDC2D0020D42D00209D7402001E
:10757800D1740200E42D002000F18040002382B085
:10758800036003680193019B02B07047124B1B68AC
:1075980010B573B14FF48070FFF7EEFF4FF08043E2
:1075A8000122C3F808230D4B587910B95A711B688A
:1075B80098470B4B1B6873B14FF48270FFF7DCFFE1
:1075C8004FF080430222C3F80823044B01201B68B4
:1075D800BDE81040184710BD00010040E82D00200C
:1075E8000401004000F1804000F5C040002382B053
:1075F800036003680193019B02B0704703681F2B67
:1076080083BF03F01F03036001484FF0A040704799
:107618000003005007B502AB43F8040D1846FFF706
:10762800EDFF019B00EB8300D0F8003723F44033D3
:10763800C0F80037D0F8003743EA0141C0F8001716
:1076480003B05DF804FB0000054B4FF0FF3207283C
:1076580043F8202084BF1B1883F85820704700BFC8
:10766800F02D002010B5174C94F86A3043BBFF2169
:10767800E2180133302B82F83010F9D10021C8B25A
:10768800FFF7E2FF01310C29F9D1062200210E484B
:1076980004F0EDF90D4BE02283F806234022C3F8ED
:1076A80080214FF4BE701A60FFF79CFF084B4FF023
:1076B8000042C3F80423012384F86A30002010BD77
:1076C8000820FCE7F02D0020542E002000E100E007
:1076D80000600040034B93F86A00003018BF012097
:1076E800704700BFF02D002030B5384C23180246F3
:1076F80093F93000013085B065D18878002854D0DE
:10770800002354F8235001354FEA830047D1A518C8
:1077180000F1804000F5C04085F83030002544F87D
:107728002350D0F810550B784C7825F499151B0484
:10773800240525F4F85504F4801403F44033C0F804
:10774800105523431402D0F8105504F47C542343F5
:107758002B43C0F810354978012904A829D140F8ED
:107768000C2DFFF74BFF019B9940C0F8081504A8A2
:1077780040F8042DFFF742FF039B03F5E073032154
:1077880040F82310124822FA01F1012302F00702FF
:1077980003FA02F2435C1A434254002003E0013327
:1077A800082BAED1042005B030BDFE2083F8300090
:1077B800D1E740F8082DFFF721FF029901238B40FC
:1077C800C0F80C35D3E70820EDE700BFF02D002006
:1077D800542E0020074B184490F930309B0003F1D9
:1077E800804303F5C043D3F8102542F00302C3F8E1
:1077F80010257047F02D0020054B184490F93000F3
:107808008000C0B200F1804000F5C040704700BF62
:10781800F02D0020F7B5404F3B18044693F930305F
:10782800002B944675DA8B78C3F34003002B15BF01
:107838000025082508200C20854202D1042003B029
:10784800F0BD57F8252001324FEA850649D138198D
:1078580047F825C080F8305013B97B1983F8584091
:107868008B785A071BD4D8073DD502A840F8084D95
:10787800FFF7C4FE009B00EB8300D0F8003723F02D
:107888000203C0F800372548E20804F0070C01237A
:1078980003FA0CF310F802C043EA0C038354887807
:1078A80091F800C010F002002AD006F1804303F5D9
:1078B800C0432402D3F8102522F44F3222F4407238
:1078C800C3F810254FEA0C4CD3F8102504F47C5467
:1078D8000CF4403C44EA0C041443C3F8104500205F
:1078E800ADE70135A8E702A84A7840F8044DFFF74C
:1078F80085FE019B03F5E073920040F82320C2E760
:10790800083D3D4495F8604044EA8C1C85F860C009
:1079180095E7082093E700BFF02D0020542E0020A3
:1079280073B5224C2518064695F93020072A1ADD2A
:10793800224492F858309B09032B10D102A840F832
:10794800046DFFF75BFE019AD0F81035D340DB07D2
:1079580007D402213046FFF75DFE02B070BD012B4F
:10796800F7D00321F6E7D3B2072BF6D8930003F13B
:10797800804303F5C043D3F8100540F00100C3F875
:10798800100502F14000800080B2FFF72BFE0029AD
:10799800E3D095F9303054F82330002BDDD00123A3
:1079A80003FA02F2024BC3F80423D6E7F02D0020B5
:1079B8000060004007B502AB43F8040D1846FFF716
:1079C8001DFE019BD0F81005D84000F0010003B05F
:1079D8005DF804FB2DE9F04F002489B0CDE902449D
:1079E8005F4A604E604D01211368A2F5C040012B2B
:1079F80080B206D1D6F804330B4202D0FFF7F2FD6D
:107A08000C430432AA424FEA4101EDD1574B1B689F
:107A1800012B0ED14FF4BE70FFF7E4FD4FF0A043E9
:107A280044F00044D3F810350293514BD3F8103585
:107A3800039314F0FF0F1AD04E4F0126002526425B
:107A480010D0AB0003F1804303F5C043D3F8100511
:107A5800D3F8101557F82530C0F30520C1F30141BC
:107A680003B198470135082D4FEA4606E7D1002CA7
:107A780072DA04AE0023049373604FF0FF33CDE94C
:107A880006333C4F4FF00108002425467B1993F933
:107A98006020531C47D0D2B222F0C00908A84FEA90
:107AA800D90300EB030B02F007011BF8080C08FAD6
:107AB80001F1084237D007EB0900920990F930002C
:107AC80057F820A0BAF1000F05D1032A2BD1F05C9A
:107AD8000843F05401E0032AF9D001A8CDF8049036
:107AE800FFF78CFD019B03F5E07350F823301BF87A
:107AF800180C0842C3F3014305D0022B13D1032A03
:107B08000BD1114604E0032B0DD1032A05D1022124
:107B18004846FFF77FFD0134E4B2BAF1000F02D006
:107B280011464846D0470135042DAFD1A4B14FF0D6
:107B3800A0430299D3F8102503F540739142D3F876
:107B4800103502D10399994206D002920393049A00
:107B5800059B0692079397E709B0BDE8F08F00BF31
:107B68000061004000600040206100407C610040EE
:107B780000030050F02D0020014B1B68184700BF80
:107B88005C2E00200D4B984237B50D4610D102A847
:107B9800002300F8013DFFF72DF9094B1C7914B9B2
:107BA80001221D601A719DF80700FFF747F914B903
:107BB800002003B030BD1120FBE700BF00200040CB
:107BC8005C2E00200023435082B043580193019B50
:107BD80002B070470A4610B54FF48E71FFF7F2FFF6
:107BE800136A9168C95C136A01331362C0F81C15E3
:107BF80010BD024608B54FF492710068FFF7E2FF26
:107C08004FF484711068FFF7DDFF136801221A60D2
:107C180008BD8B690A4610B54FF4847123B9FFF784
:107C2800D1FFD0F8183510BDFFF7CCFF536AD168E3
:107C3800D0F81805C854536A01335362F3E70000BB
:107C48001FB501238DF80030044BCDE90110D3E9AD
:107C580000126846904705B05DF804FB642E0020CA
:107C680030B54C4AD2F8043313F4007F85B015467A
:107C78004FD0D2F82431002B4BD04FF492711046DC
:107C8800FFF7A0FF4FF40173C2F80833424B93F893
:107C9800291009B9012151603E4902228DF80020BE
:107CA800D1F88024C1F8802403929A690292DA6894
:107CB80001920022C3E906226846D3E900129047E0
:107CC8003448D0F81C315BB133490A6A4B699A428F
:107CD8000A464BD291F82830002B47D1FFF77AFF9C
:107CE8002C4AD2F8443193B14FF4A2711046FFF7F1
:107CF80069FF294B93F8291009B1012111609A698C
:107D08002AB100229A61586AD968FFF799FF05B02D
:107D180030BDD5F804335B07D2D5D5F80831002B30
:107D2800CED01D4C1B482146FFF773FF636AA2693A
:107D38009A422346C4D1E269E1684AB12369E36003
:107D48000023606AA261E3616362FFF779FFB7E726
:107D580094F829200AB901226A600E4A4FF401708A
:107D6800C2F8080300229A61586AEEE74FF48E7150
:107D78000848FFF727FF51690029B1D00023029175
:107D880091688DF80030019153616846D2E900137B
:107D98009847A5E700200040642E00202DE9F8430D
:107DA800664B047991462C2202FB0432064692F86F
:107DB8002A200D469846002A40F0BC806049006899
:107DC800FFF7E0FE0746002840F0B68029684A1C05
:107DD80010D01F2987BF01F01F035A4A0B464FF0E6
:107DE800A0420120984003F5E073C2F8080503207B
:107DF80042F823006868431C0DD01F288BBF00F091
:107E08001F0303464F4A4FF0A04203F5E0734FF0BB
:107E1800000C42F823C03368AA6995F814C0C3F867
:107E280024256A7DBCF1010F4CEA0202C3F86C25D7
:107E3800C3F81405C3F80C152BD1A968481C0DD03C
:107E48001F298BBF01F01F020A463E484FF0A04091
:107E580002F5E0724FF0000C40F822C0E868421CBE
:107E680013D01F2887BF00F01F0C364A84464FF0F6
:107E7800A0424FF0010E0EFA0CFE0CF5E07CC2F8A1
:107E880008E54FF0030E42F82CE0C3F80805C3F8E4
:107E980010152C23634308EB0302C2F804902A69E7
:107EA80048F80320B9F1000F31D04FF48E713068D3
:107EB8002D7FFFF787FE30684FF4A271FFF782FE2F
:107EC8003268214BC2F80433120B53B2002BA8BFFF
:107ED80003F160404FEA53134FEA4511BABF1B48FC
:107EE80002F00F0500F561404FEA8303C9B203F1C0
:107EF8006043B4BF415580F8001303F5614302F0B5
:107F08001F02012101FA02F2C3F880211A603368C6
:107F18000422C3F800252C2303FB04830022C3E9B1
:107F2800062283F829205A61012283F82A2038463C
:107F3800BDE8F8830827FAE71127F8E7642E002040
:107F4800697C0200000300508000020014ED00E08C
:107F58002DE9F843224F06794FF02C0909FB0674E6
:107F680080466569002D37D16261A16025624FF4B2
:107F78008E71006884F82850FFF724FED8F80000B6
:107F8800012383602146FFF725FE6368A1462BBBCA
:107F9800D8F80050226A63699A4212D3D8F80030A0
:107FA800D3F81C21002AFBD00122DA6000202C2300
:107FB80003FB067600237361BDE8F88394F8283044
:107FC80043B9D5F81C31002BF8D049462846FFF7AD
:107FD80001FEDFE70F20EAE71120EDE72846EBE78F
:107FE800642E00202DE9F843384E05792C2303FB35
:107FF800056307465C6824B103684FF40170C3F851
:1080080008032C2303FB0563986950B1D86900283D
:108018003ED024B13B684FF40172C3F80423112009
:1080280034E09A61D9605862D8612C2303FB056358
:1080380093F829301BB910B93846FFF7DAFD4FF02D
:108048002C0909FB05683868D8F80430002B34D1AE
:108058004FF4A271FFF7B6FDC1463868D0F8243155
:10806800D0F80821D0F84441B2B90CB9002BF4D0AB
:108078002C2202FB05650022AA611BBB24BB95F8D4
:1080880029103B680122B1B11A600020BDE8F883CD
:108098001961DA610120C8E7002BE9D1002CE7D18A
:1080A8004946FFF7B6FDD8F82430D8F818209A4288
:1080B800D3D82346DCE75A60E7E74FF40173C0F8EA
:1080C8000433E2E70320E1E70F20DFE7642E002016
:1080D8000023435082B043580193019B02B070477C
:1080E8001FB501238DF80030054B8DF8080001916C
:1080F8006846D3E90012904705B05DF804FB00BF5D
:10810800902E00207FB5384AD2F82461002E49D03D
:1081180010464FF49271FFF7DBFF02238DF8003011
:10812800D2F88034C2F880340393D2F83C358DF805
:1081380008302E4BDA6801920022C3E9062268460D
:10814800D3E900129047284AD2F8443173B14FF46A
:10815800A2711046FFF7BCFF244B996931B1002189
:108168009961D2F83C05D968FFF7BAFF1E4AD2F8E0
:108178002031ABB14FF490711046FFF7A9FF1B4BAC
:10818800596969B1D2F84C158DF808100022996820
:108198008DF8002001915A616846D3E90012904792
:1081A80004B070BDD2F81031002BCCD04FF48871D8
:1081B8001046FFF78DFF0D4BD2F83C0599698842B0
:1081C800C1D1DC69D96864B1D2F8005225F0200524
:1081D800C2F800521A699C61DA60DE61FFF780FF1D
:1081E800B1E79C61FAE700BF00200040902E002014
:1081F8002DE9F8436A4B06799146242202FB0632A0
:10820800044692F820200D469846002A40F0C48083
:1082180064490068FFF7B6FC0746002840F0BE80B6
:108228002868421C10D01F2887BF00F01F035E4A31
:1082380003464FF0A0420121994003F5E073C2F8CC
:108248000815032142F8231069684B1C0DD01F291B
:108258008BBF01F01F030B46534A4FF0A04203F5B2
:10826800E0734FF0000C42F823C02368AA6995F820
:1082780014C0C3F824256A7DBCF1010F4CEA020240
:10828800C3F86C25C3F80C05C3F814152BD1A968DD
:10829800481C0DD01F298BBF01F01F020A46424817
:1082A8004FF0A04002F5E0724FF0000C40F822C0F9
:1082B800E868421C13D01F2887BF00F01F0C3A4AF9
:1082C80084464FF0A0424FF0010E0EFA0CFE0CF55A
:1082D800E07CC2F808E54FF0030E42F82CE0C3F842
:1082E8000805C3F810152423734308EB0302C2F8EA
:1082F80004902A6948F80320B9F1000F3BD04FF4E5
:10830800887120682D7FFFF7E3FE4FF49071206895
:10831800FFF7DEFE4FF492712068FFF7D9FE206860
:108328004FF4A271FFF7D4FE2268204BC2F8043341
:10833800120B53B2002BA8BF03F160404FEA53134E
:108348004FEA4511BABF1A4802F00F0500F561401F
:108358004FEA8303C9B203F16043B4BF415580F8C3
:10836800001303F5614302F01F02012101FA02F232
:10837800C3F880211A6023680822C3F80025242343
:1083880003FB06830022C3E906225A61012283F80F
:1083980020203846BDE8F8830827FAE71127F8E7D0
:1083A800902E00200D8102000003005010030200EF
:1083B80014ED00E001F06043B3F1005F2DE9F041F6
:1083C800074632D11C4B0679242505FB063598460D
:1083D8006C6964BB6A61A96000684FF49071FFF72B
:1083E80077FE4FF4AC713868FFF772FE3B686A6934
:1083F800A968C3F84415C3F8482501229A606A6839
:10840800BAB9D3F82011D3F8582149B9002AF8D0BD
:108418000F20242303FB068600237361BDE8F08147
:10842800002A14BF0F200020F3E71020F6E71120E0
:10843800F4E72046F2E700BF902E0020F8B501F0DF
:108448006043B3F1005F04460F465ED10379304DB7
:10845800242101FB0351486820B121684FF40476B8
:10846800C1F80863242101FB03539E6956B1D969F9
:10847800002939D020B123684FF40472C3F80423CB
:10848800112030E09A61DF60DE614FF48871206866
:10849800FFF71EFE4FF4A2712068FFF719FE23684C
:1084A800C3F83475C3F8382516BB01221A6022793F
:1084B800242101FB0251496809BBD3F81041D3F8C4
:1084C8004411D3F8240114B909B90028F5D024239C
:1084D80003FB02550023984214BF03201846994213
:1084E800AB6118BF0F20F8BD1F61DA610126CCE728
:1084F800D3F8002242F02002C3F80022D7E74FF455
:108508000472C3F804230020EDE71020EBE700BF56
:10851800902E00200023435082B043580193019BC2
:1085280002B07047F0B5D0F8243187B004460D4644
:108538009BB14FF49271FFF7EDFFD0F8043163B9A6
:10854800AB68C0F808330223AB60AB68C0F80433EB
:1085580001230362436107B0F0BDD4F80431002B56
:1085680034D04FF48271204605F10C07FFF7D2FF93
:108578000FCF01AE0FC63B68336095F82E3073B14C
:108588002B7B012B0CBFD4F83C25D4F84C25029248
:10859800022B0CBFD4F83C35D4F84C3503934FF478
:1085A800B0712046FFF7B6FF4FF4AE71FFF7B2FF88
:1085B80095F8303013B195F82E30CBB10023C4F8BC
:1085C8000032AB601F4BC4F8083311E04FF4A471BC
:1085D8002046FFF79FFF2B7BEBB905F10C070FCF68
:1085E80001AE0FC63B68336095F83030002BE6D0FB
:1085F800D4F8C434C4F8C4349A071ED501238DF8BE
:10860800003095F830300BB985F82F30D5E90031B6
:10861800684698479FE74FF40073C4F8003240F269
:108628000223AB6003F1CE73C4F80833AB68C4F817
:1086380004330123A36023628DE713F0040318BFFA
:108648000223DCE702029C0101490248FFF76ABFE6
:10865800B42E00200030004002494FF04020FFF7C0
:1086680061BF00BFE82E00202DE9F84F0479414D85
:108678004FF0340A0AFB04FA05EB0A079B4697F801
:108688002D3080460E469146002B6ED13A4B00683D
:1086980053F82410FFF776FA002868D13268737B04
:1086A80087F832301F2A8CBF02F01F031346B860C8
:1086B800C7F804B087F82F0087F8300003F5E07199
:1086C80088BF2E4F45F80A9098BF4FF0A04740F258
:1086D8000C6347F8213071681F291F468CBF01F0D1
:1086E8001F030B4603F5E0738CBFDFF890C04FF013
:1086F800A04C4CF82370D8F80030C3F80825B268AD
:10870800C3F80C15C3F82425B9F1000F25D01A0BAE
:1087180053B2317B002BA8BF03F16046D2B24FEAB7
:108728005313B8BF02F00F074FEA4111B4BF144EFC
:1087380006F561464FEA8303C9B203F16043B4BF4B
:10874800F15586F8001303F5614302F01F02012179
:1087580001FA02F2C3F880211A60342303FB04549F
:10876800012384F82D30BDE8F88F0820FBE711209D
:10877800F9E700BFB42E002060C3020000030050D8
:1087880014ED00E0026803790621C2F80015044AD6
:10879800342101FB0323022283F82D20704700BFF8
:1087A800B42E00202DE9F843CB6803F06043B3F101
:1087B800005F0D46904603D010221046BDE8F883AE
:1087C8000779944E0468944BC4F808334FF0340C7E
:1087D8000CFB076C9CF82F302BB1DCF80830C4F880
:1087E80004331122E9E712F0140F0CBF0123002310
:1087F8008CF82F308946B9E80F000CF10C0EAEE862
:108808000F00D9F80030CEF80030C8F300138CF808
:1088180030306B78C4F888354FF482712046FFF702
:1088280079FE4FF49271FFF775FE18F0010318BF37
:108838000123C4F8503518F0020318BF0123C4F807
:1088480040352B78032B00F2C380DFE803F083ABBD
:1088580067022B6903F06043B3F1005FACD14FF4BA
:108868008073EA68C4F800326B68C4F844254FF492
:10887800A871C4F84835FFF74DFE4FF4B071FFF703
:1088880049FE4FF4A471FFF745FE01232362A3605C
:10889800D4F85031002BFBD04FF4A8712046FFF7D5
:1088A80039FEAB682A69C4F84425C4F848355B4AE0
:1088B800342303FB07639A604FF482730821002274
:1088C80018F0080F04D1287803281CBF0120605035
:1088D800342179437018715800297ED10125234429
:1088E8001968002900F086803421D4F8C434C4F80B
:1088F800C43401FB0766002186F82F10002B3FF4D3
:108908005CAF13F0020F48F2012208BF032213F0F4
:10891800040F48F2022318BF1A464EE76B68EA684C
:10892800C4F84425C4F848352B6903F06042B2F115
:10893800005F7FF441AFAA68C4F834354FF484531C
:10894800C4F83825C4F80032342303FB076340F227
:108958000222B0E76B68EA68C4F8442518F0200FD3
:10896800C4F848354FF0340310D003FB07634FF4C5
:108978008072C4F80022294A9A604FF4A471FFF764
:10898800C9FD4FF4A4730122226297E74FF40072E5
:1089980003FB0763C4F8002240F202229A604FF4F6
:1089A8008273F0E76B68EA68C4F83425C4F8383590
:1089B8004FF48053C4F80032342303FB076340F2BA
:1089C80002229A600123236200214FF4827376E722
:1089D8004FF482730821072272E718F0040F1CBFB6
:1089E8004FF400738360342303FB0766B368C4F84D
:1089F8000433E2E6D4F8241100293FF471AF4FF4B0
:108A080092712046FFF786FD25624FF482736561F7
:108A180065E700BFB42E002002029C01000204009A
:108A2800F0B587B004460F4615460021142201A868
:108A38001E4603F01CF89DF830308DF80570002BA9
:108A480014BF2022002201A9204602960495FFF7B0
:108A5800A9FE07B0F0BDF0B587B004460F4615462D
:108A6800002112220DF106001E4603F000F8012332
:108A7800002201A920468DF804308DF80570029671
:108A88000495FFF78FFE07B0F0BD0000034B187880
:108A980010B901221A707047852070471C2F0020DA
:108AA8001FB503788DF8003003798DF804304379C9
:108AB8008DF8053083688DF80630C3688DF8073067
:108AC8000369029343690393054A064B684653F8C2
:108AD800213052F82110984705B05DF804FB00BF1B
:108AE800202F0020282F0020024B4FF4807043F0E5
:108AF8000103184770C302001F2886BF00F01F003B
:108B0800044A4FF0A042012303FA00F0C2F8080516
:108B1800704700BF000300502DE9F04790460678E3
:108B28003A4A42F826803A4A42F826304B7B0746B2
:108B38000C46A3B30868DFF8E0904FF0A04100F5B9
:108B4800E07340F20C6241F82320636803F5E07398
:108B5800002541F82320FFF7CFFF6068FFF7CCFF1F
:108B6800236803F5E07340F20D6241F8232063683F
:108B780003F5E0734FF0010A41F82320FFF7B4FF33
:108B880063681F2B8ABF4A464FF0A04203F01F03B9
:108B9800D2F8102522FA03F3DB070DD515BBB8F17F
:108BA800000F33461B4A214607F1040008BF002284
:108BB800BDE8F047FFF758BD23681F2B86BF03F0B9
:108BC8001F034A464FF0A0420AFA03F3C2F80C35D5
:108BD800FFF78AFF01352068FFF78EFFFFF784FF54
:108BE800092DCDD163681F2B86BF03F01F030A49E7
:108BF8004FF0A041012202FA03F3C1F80C35FFF748
:108C080073FF6068FFF778FFC9E700BF282F0020CF
:108C1800202F0020A98A0200000300502DE9F74FF9
:108C28004FF00009154D164E07464FF0040AC84686
:108C38005FFA89FB01240DF1070004FA0BF48DF8A3
:108C48000780FEF7D7F82C4208D0336814EA0302ED
:108C580001BF2343336087F800B092469DF80700B0
:108C6800FEF7ECF8BAF1000F03D0A54309F10109AA
:108C7800DED1504603B0BDE8F08F00BFFFFF010012
:108C8800302F002010B5A1B19AB101238340C3F35E
:108C9800100484B10A4C246823420ED0C00000F1AD
:108CA800804000F5F830C0F81015C0F814250020F1
:108CB80010BD0E20FCE70720FAE70820F8E700BF00
:108CC800302F0020012303FA00F0430C5B044BB95A
:108CD80018B1064B1B68184206D0054BC3F80405AB
:108CE800002070470720704708207047302F002069
:108CF80000F001402DE9F743002406460F4600F531
:108D0800A0754FF48038A14604F150002B6880000C
:108D180080B26BB1D6F8043308FA04F21A4207D0CD
:108D2800C5F800902B680193019BD7E9003198475B
:108D38000134042C05F10405E6D103B0BDE8F08345
:108D4800F7B50579334C0C266E43A7193B7A002BEF
:108D58005ED1A2514A687A60467900681F46DAB245
:108D680096424BD8020B53B2CE78002BA8BF03F122
:108D78006047D2B24FEA5313B8BF02F00F0C4FEA64
:108D88004616B4BF244F07F561474FEA8303F6B28E
:108D980003F16043B4BF07F80C6087F8006303F57C
:108DA8006143012602F01F0206FA02F2C3F880218D
:108DB8001A60D0F804254B7822F0030203F003036D
:108DC8001343C0F80435D0F808258B7822F0030245
:108DD80003F003031343C0F80835D0F810250B78C7
:108DE80022F00F0203F00F031343C0F810350C23D1
:108DF80003FB05440020267203B0F0BD03F15002C6
:108E0800013340F8227050F822200192019AA6E717
:108E18000820F1E7342F002014ED00E00368012258
:108E28001A600379034A0C2101FB032302221A72F8
:108E3800704700BF342F002037B54FF480348C4082
:108E480000687BB101F150039B000025C550C35851
:108E58000193019BC0F8044301F5A87140F8212053
:108E680003B030BDC0F80843F6E7F0B404689DF8D5
:108E78001070D4F8005240F201168E4025EA06051B
:108E8800C4F80052D4F800522B43C4F800323B46D1
:108E9800F0BCFFF7D1BF000001490248FFF72ABF25
:108EA800342F00200080004001490248FFF722BF0C
:108EB800402F0020009000401FB54B7DDBB2022BF5
:108EC80007D0032B0FD0012B00D1436205B05DF80A
:108ED80004FB00238DF804300293039301A88B68E8
:108EE80089699847F2E701238DF80430D0F83C35BA
:108EF8000293D0F84C35F0E7D0F8283173B5044622
:108F08000D46DBB10023C0F82831D0F82831009392
:108F1800009B4B7DDBB2012B10D10A68CE68C0F8EC
:108F28004465C0F848254A680E69C0F83465C0F839
:108F38003825836202234B75FFF7BEFFD4F804314E
:108F480093B10023C4F80431D4F804310193019B90
:108F58006B7D022B08D10323294620466B7502B08E
:108F6800BDE87040FFF7A8BF02B070BD01490248D4
:108F7800FFF7C2BF842F0020003002402DE9F04FD8
:108F880085B091460679764A01931C2303FB062394
:108F980080461B7D0D469246002B40F0DB800B7C03
:108FA800032B00F2D98004686E4B204653F8261034
:108FB800FEF7E8FD002840F0D1802B68FF2B00F079
:108FC800BD801F2BE97C87BF674F03F01F021A463D
:108FD8004FF0A04702F5E072090247F822106968CD
:108FE800FF2900F0AE801F298BBF01F01F020A463F
:108FF8005D4F4FF0A04702F5E0724FF0000C47F8C4
:1090080022C0EA6895F812C01F2A8BBF02F01F071A
:109018001746DFF854E14FF0A04E07F5E0774FEA26
:109028008C0C4EF827C0D5F808C0BCF11F0F8BBFB9
:109038000CF01F0EE646DFF830B14FF0A04B0EF5EE
:10904800E07E00274BF82E70C4F808C5C4F8101548
:10905800C4F80C356B7CC4F814252A7CC4F8347524
:10906800DB1B18BF0123022AC4F83875C4F84475FD
:10907800C4F8487568D0032A69D0012A01D143F0A1
:109088000203C4F854352B7DC4F85C356B7DC4F8F5
:10909800C0350022C4F80421D4F804310393039B9B
:1090A800C4F82821D4F828310293029BD4F800325E
:1090B80043F00403C4F800321C2303FB06AA019BF7
:1090C8008AF81520D8F80020CAF81830120B40F298
:1090D8000243C4F80433CAF8089053B2A97D002BA0
:1090E800A8BF03F16045D2B24FEA53134FEA4111CA
:1090F800BABF02F00F071D4D05F561454FEA83031E
:10910800B4BFC9B2C9B203F16043B4BFE95585F829
:10911800001303F56143012102F01F0201FA02F274
:10912800C3F880211A600E4B1C2202FB063602236C
:109138003175C4F8003505B0BDE8F08F4FF0FF3346
:109148004DE74FF0FF315CE743F0040399E743F044
:10915800060396E70820EEE70720ECE71120EAE788
:109168004C2F002078C302000003005014ED00E0EB
:10917800F8B50479022C9446069A30D8B2F5803FA7
:109188002DD2BCF5803F2AD221B101F06045B5F15E
:10919800005F26D123B103F06045B5F1005F20D10F
:1091A800124E1C2505FB04677F7D032F03D8DFE8DB
:1091B80007F0041A04040320F8BD65437719C7E9CA
:1091C8000313C4EBC404012346F805C000687A60A1
:1091D80006EB84017B75FFF76FFE0020ECE70920A2
:1091E800EAE71020E8E70820E6E700BF4C2F002058
:1091F800024B53F8213007C8184700BFA02F0020A2
:1092080010B4044C037944F82320034A5DF8044B56
:10921800FFF7B4BEA02F0020F99102000220FEF74C
:10922800D9B800002DE9F04781460D46FEF700F950
:109238000328044604D8012D04D024D3022D2FD0AE
:10924800BDE8F087194D47003A18A918AE5C4A786E
:1092580052B1DFF86880164842464FF40041FDF7E6
:10926800A1FC08B988F800903B192B449A78114B57
:109278001A55002EE4D0104B1B68002BE0D0304666
:10928800BDE8F04718470A48FDF7D0FC074B04EB48
:10929800440213449E78074B1B5DB342D0D1E8E7E4
:1092A800024B00EB40041C446678E2E710300020D3
:1092B800D02F00202930002024300020AC2F00209F
:1092C80002210078FFF7AEBF08B5094B1B7853B1F0
:1092D8000020FEF74DF80120FEF74AF80320BDE80C
:1092E8000840FEF745B8BDE80840FEF755B800BF8E
:1092F800AD2F0020F8B57B4C237805461BB1002321
:109308002370FFF7E1FF172D00F28880DFE805F0F2
:109318000C17174354657680888D888D959A9A9A8C
:109328009A9AC4C9D1D9E4E4FFF7CEFF6E48FDF795
:109338007DFC6E4B002204461A702046F8BD0020C2
:10934800FDF7EEFFF8B10020FEF712F8022D0CBF72
:109358004FF4E1614FF47A61644B1D704FF40040A3
:109368004FF4FA740025E0FB01454FF47A720023AC
:109378002046294602F084FA002201465A48BDE8F0
:10938800F840FDF70FBCFDF7DFFF022D0CBFC82129
:109398004FF4C871E0E70020FDF7C2FF40B100209C
:1093A800FDF7E6FF4FF44871504B03221A70D5E7DA
:1093B800FDF7CAFFC821F7E70020FDF7B1FF38B174
:1093C8000020FDF7D5FF4FF47A61484B0422EDE702
:1093D800FDF7BAFF4FF4C871F7E70020FDF7A0FFCB
:1093E80048B10020FDF7C4FF404B05221A7041F632
:1093F8009A110022C2E7FDF7A7FFF5E70020FDF765
:10940800E9FF3A4B06221A70002240F6CD41B5E733
:109418000020FDF799FF354B07221A7000248CE7CE
:1094280001202070FDF7D6FFEEE701202070FDF740
:10943800D1FF00224FF48041A0E7FDF7BCFF2B4B82
:109448000C22EAE72A482B4EFDF7F0FBD5F111056F
:1094580004461CD0D8B9012D13D0C8235D434FF45E
:1094680000474FF4FA7000214FF47A720023C7FBCB
:10947800050102F005FA224601461D48FDF792FB58
:1094880004460220FDF760FF0123337055E70220F0
:10949800FDF76EFF0023F8E7FFF716FF134B1222C4
:1094A800BBE7FFF711FF0020FDF74EFF0F4B13221C
:1094B800B3E7FFF709FF0120FDF746FF0B4B142226
:1094C800ABE7FFF701FF0020FDF73EFF0120FDF7A6
:1094D8003BFF064B1522A0E7FDF76DFF034B1D7000
:1094E8009CE700BF20300020F02F0020283000200B
:1094F800B02F0020AD2F0020044B1B68DB0703D5DD
:10950800034B1878FFF7F6BE704700BF1C300020E9
:1095180028300020032801D8FDF776BF00207047C7
:10952800044B1B6813F0010301D0FFF7E3BE184694
:10953800704700BF1C30002038B51C4B18601C4B0E
:1095480010F00204054619601AD01A4B1A480E2268
:109558001A700F22DA7010229A7111225A7204219D
:1095680040F26662FDF70CF8044648B9FDF75CF86E
:10957800044628B90146114A1148FDF701FB044683
:10958800EB0711D50120FDF765FF6CB921460D4A9F
:109598000D48FDF7F5FA044630B90C4A0C4801218C
:1095A800BDE83840FDF7ECBA204638BD1C30002035
:1095B800243000201030002084C30200C992020029
:1095C800A8C3020001950200ACC302002592020064
:1095D800A4C30200032812D8012A0BD1012908D1FB
:1095E80000F10E02D2B200EB40000C4B1A540020DE
:1095F800704700220129F6D009D3022901D007209B
:109608007047064B00EB400018444270EFE7034BED
:1096180000EB400018448270E9E700BF10300020DA
:1096280008B5012202210020FFF7D4FF08B107285E
:1096380010D1072202210120FFF7CCFF08B107282B
:1096480008D100210A220846FFF7C4FF10B10728F5
:1096580008BF002008BD00000388102B10B502D0F9
:10966800112B1ED010BD1A4C2168B1B90122084631
:10967800FFF7B0FF08B1072824D1072202210120F3
:10968800FFF7A8FF08B107281CD1042202210020F7
:10969800FFF7A0FF08B1072814D12368013323601E
:1096A800E0E70B4A1368013B1360002BDAD1FFF7A0
:1096B800B7FF0028D6D0074B1B68002BD2D0BDE8D7
:1096C80010401847034B1B68002BE6D09847E4E787
:1096D80034300020303000200D4B10B518600C4697
:1096E80029B10120FFF716FF40B102232370094B6F
:1096F8001B6853B9BDE81040FFF792BFFFF70AFF98
:1097080008B10B23F2E72070F1E7002010BD00BF7D
:10971800303000203430002076DF70477ADF704721
:109728007CDF70477FDF70478FDF7047B1DF70479E
:109738003FDF704741DF70470B785A1E052A0DD866
:10974800DFE802F003060D1319030E4A1370704781
:109758000D4B01221A700B4B02221A7070470A4BEC
:1097680000221A70074B0322F7E7064B04221A70EF
:109778004A78064BF1E7034B05221A704A78044BE6
:10978800EBE700BFB632002089FE0020B832002087
:10979800B73200207047FCF75DBF00000388212B1B
:1097A80013B5044644D012D8112B35D003D8102B4A
:1097B80021D002B010BD122B33D0132BF9D124487D
:1097C80000231A4685210088FFF7ACFF1FE03B2BDA
:1097D8000CD007D8222BECD11E49437A0B71837A1F
:1097E8004B7121E0522B2BD0562BE2D11321A088AC
:1097F800FFF792FF0BE00720FFF792FE08B1FCF796
:1098080029FF134BA1881448198001F075F9002825
:10981800CFD0FCF71FFFCCE70D4B4FF6FF721A8035
:10982800C7E70C4943894B800C4801F0CDFBC0E7E2
:1098380002A9002321F8043D8088FFF775FFE6E7B9
:10984800034800231A4619460088FFF76FFFDEE732
:10985800BC2B0020B62B0020BC320020C02B0020DF
:109868000A4B4A881B889A420ED10A884DF67A23F9
:109878009A4209D18B88064A06490748073B9BB29A
:1098880013800B8001F0A0BB704700BFBC2B0020E9
:10989800B42B0020B62B0020C02B0020042808B5CC
:1098A80002D007280CD008BD0A4B13211888FFF7EF
:1098B80033FF30F00803F6D0BDE80840FCF7CABE15
:1098C800044B1A884FF6FF739A42ECD1024800F015
:1098D8001BFEEEE7BC2B00204430002008B548B141
:1098E80003280CD10220FFF71BFE40B1BDE8084059
:1098F800FCF7B0BE0321024800F0BFFCF5E708BD45
:10990800443000207047FCF7A5BE000008B50D499B
:109918000D4800F0F2FF08B1FCF79CFEF7210A4859
:1099280001F000F808B1FCF795FEFB224FF6FF7135
:10993800054801F003F818B1BDE80840FCF78ABEF5
:1099480008BD00BF699802009C320020A64A002387
:109958002DE9F0431370A54DA54A13600FCDB1B0A2
:1099680005AC0FC495E80300A24BA34A01934FF43A
:10997800807384E80300CDE9032302939F4A0723F9
:1099880001A905A8FDF7DEF908B1FCF763FEFDF7AC
:10999800C7F808B1FCF75EFE99490320FFF7CCFD34
:1099A80008B1FCF757FE05A90020FFF795FE08B19E
:1099B800FCF750FE01F0DEFB08B1FCF74BFE00237C
:1099C80005A90120059301F09BFC08B1FCF742FEB4
:1099D80005A801F001FD08B1FCF73CFE11238948F8
:1099E8008DF8043002F076F8864982B201A8FFF7B4
:1099F80097FE08B1FCF72EFE0021082205A802F008
:109A080036F84FF00C114FF0C87305A8CDE90513CF
:109A1800FFF784FE08B1FCF71DFEFFF777FF7A4BCE
:109A28007A48059305A901F055F808B1FCF712FE2C
:109A3800042200210DEB020002F019F8744B75485E
:109A4800019301A901F0BCF808B1FCF703FEAC22B0
:109A5800002105A802F00BF802238DF8143000232A
:109A68008DF8163005236C4A8DF817300123ADF8B0
:109A7800603019928DF89030402244F25063CDE95D
:109A8800272305A9654B66482E9300F07FFB08B194
:109A9800FCF7E0FD0121624800F075FB1C22002163
:109AA80005A801F0E4FF00234FF42032CDE9053288
:109AB800ADF822304FF470228DF82430594B0792BC
:109AC8000A930322584B8DF8202005A80B9300F029
:109AD8003BFE08B1FCF7BEFD0120FFF729FE01F0AF
:109AE800A5FC01F08DFE03214D4800F0C6FB08B12E
:109AF800FCF7B0FD4D4E4E4F0024B04633784D4D27
:109B080003B30022013B3270052B1BD8DFE803F0BA
:109B180003484C4E54673A882B689A4212D8DFF8AB
:109B28002491454801F04AFF01F0C6FCB9F800103D
:109B3800424801F043FFB9F800303648059305A9BB
:109B480001F073FA3E4B1B787BB1DFF8F8902B6875
:109B5800B9F800209A4208D801F0AEFCB9F80030F4
:109B68002C48059305A901F060FA3A882B689A42B7
:109B78007CD944B9334B1C882B68E41A324B1B88B8
:109B88009C4228BF1C462B6830492248224619446B
:109B980001F07CFA002869D12B681C442C60E9E7A5
:109BA8002B4801F00BFFCDE72A48FAE72A4B2B4850
:109BB800197801F003FFC5E7294801F0FFFE294B9A
:109BC8001B78002B14BF022301238DF804308DF875
:109BD8000530104B01A9988BFFF7A6FDB2E7224983
:109BE8000C4801F0F1F9ADE740300020B0C30200A5
:109BF8003C3000208AFE00208BFF00200D990200D7
:109C0800A5980200C8C302009F970200BC3200203A
:109C180041970200C02B0020B02B0020E5980200DD
:109C2800443000209D9702000F990200B6320020B0
:109C3800B432002038300020D7C30200ECC3020041
:109C480089FE0020F02B0020B42B0020C832002011
:109C58000DC4020022C40200B832002038C4020039
:109C680057C40200B7320020B62B002098F8003005
:109C7800002B7FF443AFFFF75DFD3FE76DDF7047D3
:109C880079DF70477DDF704764DF70472DE9F74F54
:109C98000C9CBDF834B02788002580468A4691463A
:109CA8002E46B8F80020B2420BDC35B12288013AC2
:109CB800D21B92B2FF2A39D8DA55002003B0BDE88A
:109CC800F08FD8F8042052F82600019000220DF1F8
:109CD800030101A8FFF7D8FF0028EFD19DF8032062
:109CE8004A4521D12288002D14BF0020022002EB12
:109CF80009010144594519DC3DB9013292B222806B
:109D080003F802A022880132228022880DF1030183
:109D18001A4401A8FFF7B8FF0028CFD121889DF881
:109D280003200A44228001250136BAE70C20C5E742
:109D38002DE9F341089CBDF824501746CDE90045AC
:109D480002220646FFF7A2FF48B9102239463046DC
:109D5800CDE9084502B0BDE8F041FFF797BF02B072
:109D6800BDE8F0812DE9F04F00231688138090F8A4
:109D78002D3085B007460D46144653B3082E01D83A
:109D88000C2026E102A8FFF779FF002840F0218186
:109D980013880822CA54238801339BB21B222380CC
:109DA800CA542088013080B2208006220DF10901B2
:109DB800284401F033FE23889DF8082006339BB21F
:109DC80012F0FE0218BF01222380EA5423880133CF
:109DD8002380BB78FBB123880433B342D0D802A8D0
:109DE800FFF74EFF002840F0F48023880322EA544E
:109DF800238801339BB219222380EA542388BDF8B3
:109E0800082001339BB2E9182380EA54120A4A70E9
:109E1800238802332380FA789AB12388D91CB14267
:109E2800AED80221E954238801339BB20121238053
:109E3800E95423880B449BB22380EA5423880B44BB
:109E480023807A68AAB12388D91CB14298D8022104
:109E580092F90020E954238801339BB20A21238018
:109E6800E954238801339BB22380EA5423880133C1
:109E780023803B89002B40F0A0803B8A5BB1CDE971
:109E880000462B460722032107F11000FFF750FF79
:109E9800002840F09E803B8B5BB1CDE900462B4605
:109EA8001522142107F11800FFF742FF002840F09F
:109EB80090803A6A002A40F08F80D7F82480B8F161
:109EC800000F30D0B8F804302188981C8A1C02444E
:109ED800B2423FF655AFFE283FF652AF03336B54FC
:109EE800238801339BB2FF222380EA54238801335D
:109EF8009BB22380B8F80020EA54E918120A4A7085
:109F08002088023080B22080B8F804205AB1D8F8EE
:109F1800081000296AD0284401F080FD2388B8F889
:109F280004201344238097F82C30002B40F09980AC
:109F3800387800284DD03B88012B57D021888A1CBF
:109F4800B2423FF61DAF012805D17B7802330B449E
:109F58009E42FFF415AF023E761A04A9B6B221F864
:109F6800086DA818FFF78EFE98BB3978BDF8082051
:109F7800022900F0BB807B78934202D3B24240F2C0
:109F8800B380012940F0B4809BB29E42C0F0B080FB
:109F9800ADF808300821BDF80830FE2B3FF6F0AECA
:109FA80022880133AB542288013292B22280A9540C
:109FB80022881344238000200BE0CDE900462B467D
:109FC8000622022107F10800FFF7B2FE00283FF43D
:109FD80054AF05B0BDE8F08FB4F800C00CF106032B
:109FE800B3423FF6CDAE1188052901D80720F0E726
:109FF8006FF4486E01EB0E039BB24FF27D3E734542
:10A00800F4D95388052BF1D96FF44860181880B239
:10A018007045EBD94FF6FF70814203D0834201D0DF
:10A028009942E3D8052305F80C30238801339BB205
:10A0380012212380E954238801339BB2238011889D
:10A04800E954E818090A4170238802339BB2238037
:10A058005288EA54E918120A4A7023880233238086
:10A068002BE7BB6A002BC1D04FF000094FF00C0A58
:10A078004FF0160B97F82C305FFA89F293427FF66F
:10A0880057AFB96A0AFB02F201EB0208B8F80430CC
:10A09800981CFE283FF674AE208803332B5423887F
:10A0A80001339BB2238005F803B0238801339BB2A8
:10A0B80023808A5AEA54E918120A4A702088023022
:10A0C80080B22080B8F804205AB1D8F808100029C6
:10A0D8008CD0284401F0A2FC2388B8F8042013444B
:10A0E800238009F10109C5E7092154E7B242FBD9E8
:10A0F800ADF808604EE770B5C0B14AB116880024C3
:10A10800B44203D305196D789D4208D0A14201D805
:10A1180000200BE0055D01352C44A4B2F0E7A14214
:10A12800F6D9A31C1380005D013880B270BD37B525
:10A1380002AC002324F8023D134622460546FFF7E9
:10A14800DAFF10B1BDF80600284403B030BD72DF55
:10A15800704773DF704774DF704738B501220446D3
:10A168000D46B0F83812D0F83402FFF7E0FF00B11E
:10A17800057004F13C0204F50D7104F15400BDE8CA
:10A188003840FFF7E4BF80F830107047F8B5044650
:10A198000F4600296DD000286BD091F87A301BB19A
:10A1A80091F89830002B66D107F178060FCE4FF062
:10A1B800000C251D84F802C00FC50FCE0FC596E808
:10A1C800070085E8070084F830C0D7F8A430636337
:10A1D800D7F8A830A3634FF6FF7504F50D73C4F8DC
:10A1E8004432A4F848520722614604F24A2001F09A
:10A1F8003EFC23780BB984F8545094F8243004F1C9
:10A208005501C4F8341283B3EE23A4F8383204F5A8
:10A218000E723846FFF7A6FD30BB94F8243004F2DE
:10A22800431107F13C00C4F83C1203B3EE23A4F831
:10A23800403204F51072FFF795FDA8B9A269A4F899
:10A24800482001236269206484F850006264014652
:10A2580084F8513084F83C3004F13C0204F1540095
:10A26800FFF775FF00B92370F8BD1F23CDE71F2343
:10A27800DDE70E20F8E70720F6E7F8B5077804468B
:10A288000D46002F00F0088100F24A26A17007222F
:10A298000021304601F0EBFBE38813B1A378012BD2
:10A2A80004D0E3794BB1A378022B06D1636B9BB141
:10A2B800012284F8512208209847324604F5147187
:10A2C80012F8013F5BB99142FAD16A1E032A52D8AB
:10A2D800DFE802F0070D111484F85132EDE73B4630
:10A2E800F3E7A2791AB194F8242002B95BB9E279AC
:10A2F8000AB1002B41D1237A002B40D1637A002B7D
:10A308000CBF00250425636BA570002B39D0033DD5
:10A31800012D36D86279A2B394F852228ABB84F808
:10A328005422012284F853220720984704F13C055F
:10A3380018220021284601F09AFBE36A0122591EDF
:10A34800914284F83C2020D9042B1ED084F8512057
:10A35800002794F824201AB1D7B1A36A84F85230A0
:10A36800A178002384F85030042920D8DFE801F0D0
:10A378007C12273A5E000025C5E70225C3E70325BE
:10A38800C1E7002384F85332D0E784F85130E0E77E
:10A398000123E3E7C4F84432C4E91063022301222D
:10A3A80084F83C30802384F83120A4F84830A3781E
:10A3B800002B5CD1636B002B6AD1002067E002237D
:10A3C80084F8313062B1072384F83C302369A4F85B
:10A3D80048300023C4F84432E36826646364E6E73F
:10A3E8000323F1E763696364A369A4F8483012B1F1
:10A3F800062384F83C306379B3B194F852329BB9A0
:10A4080094F8543283B1022384F850300421204652
:10A41800FFF7A3FE0028CAD1052384F8313004F5DC
:10A428000D73C4F84432C2E70323F6E7E3696364B3
:10A43800236AA4F8483012B1062384F83C306379C3
:10A4480083B194F852326BB994F8543253B1022361
:10A4580084F8503004212046FFF77FFE0028A6D15B
:10A468000623DAE70423D8E784F831309FE72A4641
:10A47800D4F8441204F15400FFF769FE38B994F88F
:10A48800301094F85400FFF764FE002892D0F8BD0D
:10A4980094F83100984790E70820F8E70388112BD3
:10A4A80010B50C460AD0262B1FD0102B05D1C37B24
:10A4B800012B02D18388A1F8483210BD002283887D
:10A4C80081F85222B1F848229A42F6D10B79002B32
:10A4D800F3D101212046FFF7D0FE0028EDD0A36B71
:10A4E800002BEAD0BDE810401847037A013B012B46
:10A4F800E3D889780523013191FBF3F303EB830358
:10A50800C91AC9B2E6E7704738B5044690F854004E
:10A51800FFF721FE012384F85232002384F85432D5
:10A5280084F8503006212046FFF717FE054638B953
:10A53800A1782046FFF7A1FE10B1A36B03B198479D
:10A54800284638BD75DF704776DF70477ADF704779
:10A558007BDF7047034B1A8882420CBF18460020E5
:10A56800704700BFA8000120024B9B6903B1184740
:10A57800704700BF8C00012037B585B22846FFF729
:10A58800E9FF034670B1164C017A227B91420BD247
:10A5980000F10A012846FFF7D5FFE8B1112801D0DC
:10A5A800FFF7E2FF03B030BD237C0022027243B103
:10A5B8003B212846FFF7C8FF30F0080301D0FFF71A
:10A5C800D3FF6369002BEDD000228DF80420ADF88D
:10A5D800065001A89847E5E71A7A01321A72E1E7AE
:10A5E8008C00012013B50B46497A0F4C024669B915
:10A5F800D4E901101C7A002C18BF01465868FCF7F2
:10A60800D1FA08B1FFF7B0FF02B010BD00211972EE
:10A618006369002BF8D00121ADF806008DF804100D
:10A6280001A89847F0E700BF8C0001208388B3F5A4
:10A63800FA7F28BF6FF4F97230B528BF9C180588D7
:10A648004A8838BF002495420CD84088904209D3E4
:10A658008A88A24206D303F2F310904234BF002046
:10A66800012030BD0020FCE70388112B70B501469E
:10A6780048D002D8102B1ED070BD122B52D0502BB0
:10A68800FAD12F4BC288DB899A42F5D1038A022B73
:10A69800F2D186883046FFF75DFF05460028EBD0EB
:10A6A80001F1120000F00EF930BB6868FCF7BEFA41
:10A6B8000028E1D009E0C37B012BDDD14FF6FF7004
:10A6C800FFF748FF054620B90420BDE87040FFF7B2
:10A6D8004BBF1C4A8E880680002303721368C5F896
:10A6E8000A300A30536843601031FFF79FFF144B5C
:10A6F8006872DB89002BBFD129463046BDE870401F
:10A70800FFF770BF8088FFF725FF04460028B3D005
:10A718004068FCF78BFA08B1FFF726FF4FF6FF7386
:10A728002380A9E786883046FFF714FF05460028EE
:10A73800A2D008310A30FFF779FF6872DCE700BF62
:10A748008C000120BC000120F8B5064650B3054630
:10A758000FCD154F3C460FC495E8070084E8070065
:10A768003068124B3B60B8B1FFF7F0FEC8B93168EA
:10A778000A681A604A685A600D480E4A4FF6FF7315
:10A7880003800D4B40F8043F0021FCF7F9F900283D
:10A7980014BF0320002004E01846FFF7D9FE002864
:10A7A800EAD0F8BD0E20FCE78C000120BC00012097
:10A7B800A800012081A50200C400012073B5019101
:10A7C800019C06466CB100252C46294601A8FCF7D9
:10A7D80099FB18B106EB440301349D800135142D13
:10A7E800F3D13046346002B070BD00002DE9F0436B
:10A7F80003888488112B8DB0064640D01A2B43D08D
:10A80800102B16D1294DAB680CA8DB4340F8303D1E
:10A8180055F8041FFCF78AFB009901A8FFF7CEFF43
:10A828000027019B9F4207D3132C18D90420FBF75C
:10A8380011FF0DB0BDE8F08301AB03EB47034FF008
:10A848000008B3F8049005EB0800494608F104082D
:10A85800FCF74EFBB8F1740FF5D10137E1E721465B
:10A868001348FCF73CFB21461248FCF738FBF37B06
:10A87800012BDED010482146FCF731FBD9E70C4804
:10A888002146FCF735FBD4E7057A0C482D09012D44
:10A89800214606D9FCF723FB022D21460848F0D0B3
:10A8A800EAE7FCF725FB21460548EAE7E400012032
:10A8B800EC000120E8000120F0000120F400012054
:10A8C800F8000120007800F00100704790DF704721
:10A8D800A5DF7047B5DF70471FB50023ADF8081036
:10A8E800ADF80A106A4602A903930093ADF8043044
:10A8F800FFF7ECFF05B05DF804FB88B14FF0F713E4
:10A908000360FB230371F723C3801723038141F6F8
:10A91800FB32002301618372C3728281184670473B
:10A928000E20704730B1A1F11703E02B04D8018045
:10A93800002070470E207047072070470B4688B1EB
:10A94800A2F11B01C9B2E0290ED84FF6FF718B4264
:10A9580002D102710020704733B9027311461846BC
:10A96800FFF7BABF0E2070470720704713B503469C
:10A9780080880C4690B91A88232A00F08F800FD857
:10A98800102A23D0112A44D0A37A3BB1E1880020B1
:10A99800FFF79EFF10B90123A072E37202B010BD49
:10A9A8003A2A40D0552A5AD0242AEDD11A7A0B696E
:10A9B8004A73002BE8D04DF67A21ADF80400ADF8C3
:10A9C8000010ADF802008DF8042063E0DB7B0A7903
:10A9D8000A73012B13D0022B14D0E18823898B42F0
:10A9E80005D20020FFF774FF70B90123E372217BC1
:10A9F800637B8B42C8D20020FFF76EFFC4E70B8849
:10AA0800E380EAE74B88FBE7112804BF0123A37220
:10AA1800EDE7F723CB8017230B8141F6FB338872D0
:10AA2800C8728B81B0E75B89CA88934228BF1346F6
:10AA3800172B0A6938BF17230B8162B1C97A51B144
:10AA480040F67721ADF80010ADF80200ADF80430FB
:10AA58006946204690470023E372A37294E7DB8897
:10AA6800C988A072172B38BF17238B4228BF0B4603
:10AA78002381FFF72FFFE27A002A85D12369002B73
:10AA880082D040F67721ADF802202289ADF8001077
:10AA9800ADF8042069462046984775E7197A237B64
:10AAA800994228BF1946A7E7B0DF704766DF7047AD
:10AAB800034610B500214088FFF7F8FF024608B9A1
:10AAC8001A7210BD112801D10122F9E75B68BDE8AF
:10AAD8001040184760B159B10378DE2B0AD00B68D3
:10AAE8004360DE2303704FF6FF73438000207047F6
:10AAF8000E2070470820704728B10378DE2B04D158
:10AB08004180002070470E20704708207047F0B53C
:10AB1800054685B00C46F1B1E8B10B78DE2B1AD1A9
:10AB280082884B889A4204D10B7A13B10846FFF702
:10AB3800BFFF2B88112B32D0512B0ED0012B0AD1FD
:10AB48002B7A012B07D1A9886288914203D12372FD
:10AB58002046FFF7ADFF05B0F0BDAE886388B3426D
:10AB6800F9D1AF79022FF6D1AD7B2B1F022BF2D88A
:10AB780000211022684600F07AFF052D14BF4FF41B
:10AB8800C0730023694630468DF80070ADF8043074
:10AB9800FFF78AFF0028DED063689847DBE7638801
:10ABA800AA889A4204BF4FF6FF736380D3E7A8DFF1
:10ABB8007047AADF7047AEDF704762DF704700005A
:10ABC8002DE9F04FA24B97B006AA06460D4603F1B1
:10ABD800100C174618685968144603C408336345AF
:10ABE8002246F7D1002E00F03181002D00F02E8191
:10ABF8004FF6FF73B3832B6873620023B377314634
:10AC08003846FFF7DAFF0446002840F01B81324639
:10AC180016A9012512F8023B21F8485D28468DF84F
:10AC28001230FFF7C4FF0446002840F00B810146AC
:10AC38001C220FA800F01BFF9DF83C301094B14671
:10AC480043F00C038DF83C3003AF19F80C3B8DF83A
:10AC580016302146022303223846CDE91244CDE9B5
:10AC68001444ADF8143000F002FF9DF80C309DF844
:10AC78000E2065F3030365F3420265F3071364F3DB
:10AC8800C3028DF80C3064F304129DF80D30D2B273
:10AC98002A4365F3030365F3071321468DF80E2055
:10ACA8000AA814228DF80D300DF1140800F0DFFE0B
:10ACB8004FF0F40B4B460AAA0FA970880C95CDE902
:10ACC8000A87ADF834B0FFF774FF0446002840F057
:10ACD800B9800146032202A800F0C9FE9DF80A3097
:10ACE800214665F342031C2241F211190FA88DF881
:10ACF8000A30ADF8089000F0BAFE9DF83C30109488
:10AD080043F010038DF83C3002ABCDE914343346E0
:10AD18004FF0030A13F8042B8DF8162021465246EB
:10AD28003846CDE90033CDE91244ADF814A000F05F
:10AD38009EFE9DF80C2065F3030265F307128DF85B
:10AD48000C209DF80D2065F3030265F307128DF8BA
:10AD58000D209DF80E2065F3420264F3C30264F3EC
:10AD68000412D2B22A4321468DF80E200AA81422D2
:10AD780000F07DFE009B70880C950AAA0FA9CDE90A
:10AD88000A87ADF834B0FFF714FF0446002859D1FC
:10AD98000146524602A800F06AFE9DF80A30ADF856
:10ADA800089065F3420321461C220FA88DF80A304B
:10ADB80000F05DFE9DF83C30109443F01003B1465E
:10ADC8008DF83C3002ABCDE9143419F8143B8DF8FA
:10ADD80016302146042352463846CDE91244ADF8D0
:10ADE800143000F044FE9DF80C309DF80E2065F3F9
:10ADF800030365F3420265F3071364F3C3028DF896
:10AE08000C3064F304129DF80D30D2B22A4365F376
:10AE1800030365F3071321468DF80E200AA81422B0
:10AE28008DF80D3000F023FE05230C931023ADF8A8
:10AE380034300AAA4B460FA97088CDE90A87FFF774
:10AE4800B8FE0446204617B0BDE8F08F0E24F9E797
:10AE580072C4020070B51A4D86B02B78ADF8062082
:10AE68000E46044603F0FF0113BB18B3828B4FF65E
:10AE7800FF739A4220D0837FF3B1BDF80630F42BDC
:10AE88001CD8102202A800F0F2FDA388ADF8083003
:10AE98000DF10603049302A90123A08B05968DF8F2
:10AEA8000A30FFF788FE132800D12B7006B070BD5A
:10AEB8001320FBE70E20F9E70820F7E70720F5E75E
:10AEC8006C010120144B2DE9F041144E1F68144DFC
:10AED8000024B04633682A689B1ABB4215D83268EA
:10AEE8002B689A4202D034682B68E41A7CB10D4A68
:10AEF8002B68116819440C4BA2B21868FFF7AAFF17
:10AF080040B92B6823442B60E4E73C46EEE7C8F8D9
:10AF180000402046BDE8F081F42B002064010120A8
:10AF2800600101205C0101206801012010B50C4678
:10AF380031B128B10388112B13D002D8102B0DD0B2
:10AF480010BD502B10D0572BFAD11D4B1B680BB1DD
:10AF5800FFF7B8FF1B4B00221A70F1E78388A38321
:10AF6800EEE74FF6FF73FAE7C3880A899A420BD1D6
:10AF7800028A022A08D11230FFF7A4FC10B101237B
:10AF8800A377DDE7A077DBE7228B9A420BD1028A11
:10AF9800022A08D11230FFF795FC10B10123E3779C
:10AFA800CEE7E077CCE7A2899A42C9D1636A002B41
:10AFB800C6D0028A00F112012046BDE810401847A9
:10AFC800640101206C01012030B5044689B040B30A
:10AFD800828B4FF6FF739A4225D0C37F1BB307239A
:10AFE80008ADADF80630062202230DF1090005F878
:10AFF800183D00F013FD102200210DEB020000F0B7
:10B0080036FDA38AADF810300DF10603069304A9A6
:10B018000123A08B07958DF81230FFF7CCFD09B0FE
:10B0280030BD0E20FBE70820F9E770B5044688B06C
:10B0380038B3828B4FF6FF739A4224D0C37F13B381
:10B0480008AD0523012604220DF10900ADF80630EC
:10B0580005F8186D00F0E2FC102200210DEB02004B
:10B0680000F005FDA38AADF8103004A90DF1060320
:10B07800A08B079506938DF81260FFF79CFD08B02A
:10B0880070BD0E20FBE70820F9E7000030B4858B7F
:10B098004FF6FF74A54208D0837F33B1054B1B6878
:10B0A80033B992B230BCFFF7D5BE082030BC704728
:10B0B8001120FBE76401012010DF704711DF7047A2
:10B0C80013B5044609496846FCF728F8019808B9F9
:10B0D80002B010BDD0E900312046984718B1684643
:10B0E800FCF726F8F2E71120F2E700BF88C4020057
:10B0F80013B5044607496846FCF710F8019B0BB9DD
:10B1080002B010BD2046D3E9002190476846FCF7FD
:10B118000FF8F3E7A0C40200064B9A6822B11A6838
:10B1280022F480021A607047034B4FF48002C3F880
:10B13800802070479C2D002000E100E00B4991F829
:10B1480016335A09EC231341DB0706D5084B9A68D6
:10B158003AB94FF480030B60704742F20200FBF7E4
:10B1680079BA1A6842F480021A60704700E100E078
:10B178009C2D0020F7B5184F3C785CBB174E012575
:10B1880020463570FFF79CFF112820D02046FFF796
:10B19800AFFF134B1868019002A800F8054DFBF7A4
:10B1A80029FE104901A8FFF787FF0446B0FA80F08E
:10B1B800400938709DF80300FBF740FE3CB90A4B84
:10B1C80034701C70FFF7BAFF2846FFF791FF20463E
:10B1D80003B0F0BD0824FAE76E0101206D010120DB
:10B1E80082C40200796602006F010120F7B5154F8D
:10B1F8003B7813B3144E01203070FFF761FF11281C
:10B208004FF000051BD00220FFF772FF02A800F8DC
:10B21800015DFBF7EFFDFFF751FF04469DF80700BE
:10B228003D70FBF70BFE2CB93470FFF775FF032058
:10B23800FFF75EFF204603B0F0BD0824FAE72C466E
:10B24800F8E700BF6E0101206D010120054B1B7856
:10B2580033B1054B1B780BB1FFF7C8BFFFF78ABFA7
:10B26800082070476D0101206E01012007B50849CB
:10B278006846FBF753FF019B13B903B05DF804FB65
:10B28800D3E9002090476846FBF752FFF3E700BF79
:10B2980094C40200FFF7EABF60DF704769DF7047B8
:10B2A80061DF704730B5114DADF5017D4FF4FA748B
:10B2B8000DF1020103A8ADF80240FFF7F1FF70B9E4
:10B2C800294601A8FBF72AFF029B002BF0D003A810
:10B2D800D3E90021904701A8FBF72AFFF4E70528E6
:10B2E80001D0FBF7B7F90DF5017D30BDACC4020004
:10B2F800024B1B780BB1FFF7D5BF704770010120D7
:10B308002DE9FF4180460D46002960D0314B0B6086
:10B318000C22002101A800F0AAFB0C2601272A68AC
:10B328008DF8048001A920208DF80670ADF808601A
:10B33800FFF7B4FF3246002101A800F098FB002473
:10B348002A688DF8057001A940208DF806408DF80F
:10B358000740FFF7A3FF3246214601A800F087FB0C
:10B36800F7232A68ADF8063001A923208DF8048058
:10B37800FFF794FF3246214601A800F078FB2A68BF
:10B388008DF8047001A93846FFF788FF3246214638
:10B3980001A800F06CFB4FF4B0632A68019301A97F
:10B3A800A120FFF77BFF3246214601A800F05FFB92
:10B3B8009DF804302A6864F3000301A9A0208DF8E1
:10B3C8000430FFF76BFF204604B0BDE8F0810E2083
:10B3D800FAE700BF982B002008B5FFF75DFF10B90A
:10B3E800014B01221A7008BD700101204BDF704724
:10B3F8001FB50D4C01A8FFF7F9FF70B9214602A847
:10B40800FBF78CFE039B002BF4D00198D3E90021B5
:10B41800904702A8FBF78CFEF4E7052801D0FBF75C
:10B4280019F904B010BD00BFB8C4020038B500F067
:10B4380079F81C4D00F024F900F040F9642445F037
:10B4480001054FF47A40A847013CFAD121464FF450
:10B45800807000F097F9012000F05CF9B0280146EF
:10B4680005D0114800F0AAFA104800F0A7FA002108
:10B478004FF4807000F086F90D4B1B681F2B88BFB6
:10B4880003F01F0303F5E0718CBF0A4A4FF0A04296
:10B49800032042F82100012101FA03F3C2F808351C
:10B4A80038BD00BFD0C40200D6C40200EBC40200FD
:10B4B800F82B00200003005038B51349134C002323
:10B4C8000B602380124B1B681F2B86BF03F01F03E2
:10B4D800104A4FF0A042012505FA03F3C2F80C35D3
:10B4E80000F080F829462B20FCF71AFA03214FF4C4
:10B4F800807000F047F9084B1B7803B9FEE7074B4B
:10B508001B88238038BD00BF740101207801012009
:10B51800F82B0020000300508AFF0020FC2B00209D
:10B528007047000010B586B0FDF7B0FA08B1FBF718
:10B5380091F800240723274A27488DF8104004A9CA
:10B548008DF811408DF812408DF813300594FDF7F1
:10B55800F7FB08B1FBF77EF8204B1C60204B03A9D2
:10B568001A889B78ADF80C200F208DF80E30FCF768
:10B57800BBF808B1FBF76EF80021012316480091CB
:10B588001A46FDF772FC0DF10B00FDF747FB08B1F9
:10B59800FBF760F8104B0F201C68FCF72DF904F539
:10B5A800A074024621469DF80B00FDF76BFB08B11D
:10B5B800FBF750F89DF80B00FDF784FB08B1FBF78B
:10B5C80049F80F20FCF706F90348FDF727FC06B0F9
:10B5D80010BD00BF29B50200002C002010950040C6
:10B5E80004C5020008B500214FF4807000F0CAF8C5
:10B5F800002143F2670000F0C5F8012140F2016024
:10B6080000F0C0F80A2143F2440000F0BBF8012121
:10B6180043F2100000F0B6F8202143F2600000F079
:10B62800B1F8032140F2833000F0ACF8032140F276
:10B63800873000F0A7F803214FF4647000F0A2F8F7
:10B64800202143F2590000F09DF8012143F2200027
:10B65800BDE8084000F096B8074B1B681F2B86BF53
:10B6680003F01F0305494FF0A041012202FA03F33A
:10B67800C1F80835704700BF082C002000030050AF
:10B6880007B502238DF804308DF80630064A0123E9
:10B6980001A92B208DF80530FCF7BCF808B1FAF7A2
:10B6A800D9FF03B05DF804FB61B60200037813B953
:10B6B800014B01221A7070477A01012030B51B2115
:10B6C80085B01A22CDE900124FF0CC720023029205
:10B6D8000222039369468DF80C200A480A4AFDF7AE
:10B6E8001BFA08B1FAF7B6FF0848094DFDF74AF802
:10B6F800642445F001054FF47A40A847013CFAD18B
:10B7080005B030BD20C50200B5B6020024C5020050
:10B7180010C502001FB5030A8DF80C3000238DF800
:10B728000D00009303AA022324211048FDF778F99D
:10B7380008B1FAF78FFF0E4B1C461A78002AFCD086
:10B7480000221A70242101230DF10B020748FDF78E
:10B7580082F908B1FAF77EFF2378002BFCD09DF818
:10B768000B000023237004B010BD00BF24C50200E5
:10B778007A01012010B50C46FFF7CCFF031B584295
:10B78800584110BD30B585B0030A8DF80C30002340
:10B7980004460D468DF80D008DF80E10009303AA8F
:10B7A800032324210C48FDF73BF908B1FAF752FFAF
:10B7B8000A4B1A78002AFCD00022294620461A7023
:10B7C800FFF7D8FF30B9064800F0F8F829462046B8
:10B7D800FFF7D8FF05B030BD24C502007A0101206B
:10B7E80016C5020084B004AB03E907009DF80430D5
:10B7F800012B04BF014A137004B070478AFF002070
:10B8080030B5184D89B00120FBF724FE0FCD02ACEE
:10B818000FC495E803001D2384E8030005931C2149
:10B828000423CDE90213104A1048032302A9049304
:10B83800FDF7E6FC08B1FAF70DFF0D4C0D4822881C
:10B84800FF2100F014F90C4B0C49084800221A702B
:10B8580023880093074BFDF78BFC08B1FAF7FAFE33
:10B8680009B030BD30C50200EDB7020048C502007E
:10B878000C2C0020C83200208AFF00207B01012008
:10B8880053EA020C61D02DE9F04BB3FA83F51E00A0
:10B8980007BFB2FA82F502FA05F403FA05F4164670
:10B8A800C5F120051EBF22FA05F73C43203556EAAC
:10B8B800044C4FEA144418BF0134A3464FF0000962
:10B8C800C846904271EB030C39D3094207BFB0FA5E
:10B8D80080F700FA07F6B1FA81F701FA07F6C7F11F
:10B8E80020071EBF20FA07FC46EA0C062037B6FBE5
:10B8F800FBFC7F1B103F07F01F04C4F120060CFA65
:10B9080004F42CFA06F644BF34460026202FA4BFC0
:10B918002646002454EA060C08BF012418EB040844
:10B9280049EB0609A4FB027CC01B06FB02CC04FB06
:10B9380003CC71EB0C01904271EB030CC5D20B46A2
:10B94800024649464046BDE8F08BB2FBF3F238B5F3
:10B9580004460846A26842B1236861685D1C8D42AE
:10B9680008BF00208B4208D2D054E3682BB121686D
:10B978006268914201D221469847236801332360C7
:10B9880038BD70B54C1E09D41646C5B22946304696
:10B99800FFF7DDFF013CB4F1FF3FF7D170BD10F0B8
:10B9A800100F09D108B500F40070002814BF30202A
:10B9B8002020FFF7E6FF08BD704700000FB410B560
:10B9C80086B008AB53F8044B0593002303936FF03C
:10B9D80000430293084B049300F0ACF8059A214603
:10B9E80001A800F0B7F8044600F0A5F8204606B014
:10B9F800BDE8104004B07047D963020003784BB12A
:10BA080051B10144034613F8012F0AB18B42FAD110
:10BA1800181A70470346FBE70346F9E7844640EAED
:10BA2800010313F0030F18D18446202A0BD32DE904
:10BA3800F007B1E8F807A0E8F807A2F12002202AE9
:10BA4800F7D2BDE8F007042A07D351F8043B40F8C1
:10BA5800043BA2F10402042AF7D2002A05D011F807
:10BA6800013B00F8013B013AF9D160467047844632
:10BA7800002A2DD010F0030F04D000F8011B013A62
:10BA880026D0F7E7C9B241EA012141EA0141202A5B
:10BA980012D3A2F120022DE9F0030B460C460D4605
:10BAA8000E460F4688468946A0E8FA03203AFBD29C
:10BAB800BDE8F00320320BD0042A05D340F8041B5C
:10BAC800043A05D0042AF9D200F8011B013AFBD147
